{
  "contractName": "CourseMarketplace",
  "abi": [
    {
      "inputs": [],
      "stateMutability": "nonpayable",
      "type": "constructor"
    },
    {
      "inputs": [],
      "name": "hasOwnership",
      "type": "error"
    },
    {
      "inputs": [],
      "name": "owner",
      "outputs": [
        {
          "internalType": "address payable",
          "name": "",
          "type": "address"
        }
      ],
      "stateMutability": "view",
      "type": "function"
    },
    {
      "inputs": [],
      "name": "totalOwnedCourses",
      "outputs": [
        {
          "internalType": "uint256",
          "name": "",
          "type": "uint256"
        }
      ],
      "stateMutability": "view",
      "type": "function"
    },
    {
      "inputs": [
        {
          "internalType": "bytes16",
          "name": "courseId",
          "type": "bytes16"
        },
        {
          "internalType": "bytes32",
          "name": "proof",
          "type": "bytes32"
        },
        {
          "internalType": "bytes32",
          "name": "emailHash",
          "type": "bytes32"
        }
      ],
      "name": "purchaseCourse",
      "outputs": [],
      "stateMutability": "payable",
      "type": "function"
    },
    {
      "inputs": [
        {
          "internalType": "uint256",
          "name": "index",
          "type": "uint256"
        }
      ],
      "name": "getOwnedCourseHash",
      "outputs": [
        {
          "internalType": "bytes32",
          "name": "",
          "type": "bytes32"
        }
      ],
      "stateMutability": "view",
      "type": "function"
    },
    {
      "inputs": [
        {
          "internalType": "bytes32",
          "name": "hash",
          "type": "bytes32"
        }
      ],
      "name": "getOwnedCourse",
      "outputs": [
        {
          "components": [
            {
              "internalType": "uint256",
              "name": "id",
              "type": "uint256"
            },
            {
              "internalType": "uint256",
              "name": "price",
              "type": "uint256"
            },
            {
              "internalType": "bytes32",
              "name": "proof",
              "type": "bytes32"
            },
            {
              "internalType": "address",
              "name": "owner",
              "type": "address"
            },
            {
              "internalType": "bytes16",
              "name": "courseId",
              "type": "bytes16"
            },
            {
              "internalType": "enum CourseMarketplace.State",
              "name": "state",
              "type": "uint8"
            }
          ],
          "internalType": "struct CourseMarketplace.Course",
          "name": "",
          "type": "tuple"
        }
      ],
      "stateMutability": "view",
      "type": "function"
    },
    {
      "inputs": [
        {
          "internalType": "address",
          "name": "newOwner",
          "type": "address"
        }
      ],
      "name": "setContractOwner",
      "outputs": [],
      "stateMutability": "nonpayable",
      "type": "function"
    },
    {
      "inputs": [
        {
          "internalType": "bytes32",
          "name": "emailHash",
          "type": "bytes32"
        }
      ],
      "name": "getCoursesByEmail",
      "outputs": [
        {
          "components": [
            {
              "internalType": "uint256",
              "name": "id",
              "type": "uint256"
            },
            {
              "internalType": "uint256",
              "name": "price",
              "type": "uint256"
            },
            {
              "internalType": "bytes32",
              "name": "proof",
              "type": "bytes32"
            },
            {
              "internalType": "address",
              "name": "owner",
              "type": "address"
            },
            {
              "internalType": "bytes16",
              "name": "courseId",
              "type": "bytes16"
            },
            {
              "internalType": "enum CourseMarketplace.State",
              "name": "state",
              "type": "uint8"
            }
          ],
          "internalType": "struct CourseMarketplace.Course[]",
          "name": "",
          "type": "tuple[]"
        }
      ],
      "stateMutability": "view",
      "type": "function"
    }
  ],
  "bytecode": "0x608060405234801561001057600080fd5b5033600560006101000a81548173ffffffffffffffffffffffffffffffffffffffff021916908373ffffffffffffffffffffffffffffffffffffffff1602179055506112b3806100616000396000f3fe6080604052600436106100705760003560e01c80638da5cb5b1161004e5780638da5cb5b1461010b578063a34d42b814610136578063b4f7665b1461015f578063e82400bc1461018a57610070565b80633a102ec8146100755780635c8062ba146100915780637437ac5c146100ce575b600080fd5b61008f600480360381019061008a9190610bc1565b6101c7565b005b34801561009d57600080fd5b506100b860048036038101906100b39190610c10565b610482565b6040516100c59190610f29565b60405180910390f35b3480156100da57600080fd5b506100f560048036038101906100f09190610c10565b610727565b6040516101029190610fa6565b60405180910390f35b34801561011757600080fd5b5061012061088c565b60405161012d9190610f0e565b60405180910390f35b34801561014257600080fd5b5061015d60048036038101906101589190610b98565b6108b2565b005b34801561016b57600080fd5b50610174610a19565b6040516101819190610fc1565b60405180910390f35b34801561019657600080fd5b506101b160048036038101906101ac9190610c39565b610a1f565b6040516101be9190610f4b565b60405180910390f35b60008382336040516020016101de93929190610ed1565b6040516020818303038152906040528051906020012090506101ff81610a3c565b15610236576040517f95076d8b00000000000000000000000000000000000000000000000000000000815260040160405180910390fd5b600080600081548092919061024a906110cf565b9190505590508160026000838152602001908152602001600020819055506040518060c001604052808281526020013481526020018581526020013373ffffffffffffffffffffffffffffffffffffffff168152602001866fffffffffffffffffffffffffffffffff19168152602001600060028111156102f4577f4e487b7100000000000000000000000000000000000000000000000000000000600052602160045260246000fd5b8152506001600084815260200190815260200160002060008201518160000155602082015181600101556040820151816002015560608201518160030160006101000a81548173ffffffffffffffffffffffffffffffffffffffff021916908373ffffffffffffffffffffffffffffffffffffffff16021790555060808201518160040160006101000a8154816fffffffffffffffffffffffffffffffff021916908360801c021790555060a08201518160040160106101000a81548160ff021916908360028111156103f0577f4e487b7100000000000000000000000000000000000000000000000000000000600052602160045260246000fd5b02179055509050506003600084815260200190815260200160002082908060018154018082558091505060019003906000526020600020016000909190919091505560016003600085815260200190815260200160002080549050141561047b5760048390806001815401808255809150506001900390600052602060002001600090919091909150555b5050505050565b606060006003600084815260200190815260200160002090506000818054905067ffffffffffffffff8111156104e1577f4e487b7100000000000000000000000000000000000000000000000000000000600052604160045260246000fd5b60405190808252806020026020018201604052801561051a57816020015b610507610aaa565b8152602001906001900390816104ff5790505b50905060005b828054905081101561071c5760016000848381548110610569577f4e487b7100000000000000000000000000000000000000000000000000000000600052603260045260246000fd5b906000526020600020015481526020019081526020016000206040518060c00160405290816000820154815260200160018201548152602001600282015481526020016003820160009054906101000a900473ffffffffffffffffffffffffffffffffffffffff1673ffffffffffffffffffffffffffffffffffffffff1673ffffffffffffffffffffffffffffffffffffffff1681526020016004820160009054906101000a900460801b6fffffffffffffffffffffffffffffffff19166fffffffffffffffffffffffffffffffff191681526020016004820160109054906101000a900460ff166002811115610689577f4e487b7100000000000000000000000000000000000000000000000000000000600052602160045260246000fd5b60028111156106c1577f4e487b7100000000000000000000000000000000000000000000000000000000600052602160045260246000fd5b815250508282815181106106fe577f4e487b7100000000000000000000000000000000000000000000000000000000600052603260045260246000fd5b60200260200101819052508080610714906110cf565b915050610520565b508092505050919050565b61072f610aaa565b600160008381526020019081526020016000206040518060c00160405290816000820154815260200160018201548152602001600282015481526020016003820160009054906101000a900473ffffffffffffffffffffffffffffffffffffffff1673ffffffffffffffffffffffffffffffffffffffff1673ffffffffffffffffffffffffffffffffffffffff1681526020016004820160009054906101000a900460801b6fffffffffffffffffffffffffffffffff19166fffffffffffffffffffffffffffffffff191681526020016004820160109054906101000a900460ff166002811115610849577f4e487b7100000000000000000000000000000000000000000000000000000000600052602160045260246000fd5b6002811115610881577f4e487b7100000000000000000000000000000000000000000000000000000000600052602160045260246000fd5b815250509050919050565b600560009054906101000a900473ffffffffffffffffffffffffffffffffffffffff1681565b80600560009054906101000a900473ffffffffffffffffffffffffffffffffffffffff1673ffffffffffffffffffffffffffffffffffffffff163373ffffffffffffffffffffffffffffffffffffffff1614610943576040517f08c379a000000000000000000000000000000000000000000000000000000000815260040161093a90610f66565b60405180910390fd5b8073ffffffffffffffffffffffffffffffffffffffff16600560009054906101000a900473ffffffffffffffffffffffffffffffffffffffff1673ffffffffffffffffffffffffffffffffffffffff1614156109d4576040517f08c379a00000000000000000000000000000000000000000000000000000000081526004016109cb90610f86565b60405180910390fd5b81600560006101000a81548173ffffffffffffffffffffffffffffffffffffffff021916908373ffffffffffffffffffffffffffffffffffffffff1602179055505050565b60005481565b600060026000838152602001908152602001600020549050919050565b60003373ffffffffffffffffffffffffffffffffffffffff166001600084815260200190815260200160002060030160009054906101000a900473ffffffffffffffffffffffffffffffffffffffff1673ffffffffffffffffffffffffffffffffffffffff16149050919050565b6040518060c00160405280600081526020016000815260200160008019168152602001600073ffffffffffffffffffffffffffffffffffffffff16815260200160006fffffffffffffffffffffffffffffffff1916815260200160006002811115610b3e577f4e487b7100000000000000000000000000000000000000000000000000000000600052602160045260246000fd5b81525090565b600081359050610b5381611221565b92915050565b600081359050610b6881611238565b92915050565b600081359050610b7d8161124f565b92915050565b600081359050610b9281611266565b92915050565b600060208284031215610baa57600080fd5b6000610bb884828501610b44565b91505092915050565b600080600060608486031215610bd657600080fd5b6000610be486828701610b59565b9350506020610bf586828701610b6e565b9250506040610c0686828701610b6e565b9150509250925092565b600060208284031215610c2257600080fd5b6000610c3084828501610b6e565b91505092915050565b600060208284031215610c4b57600080fd5b6000610c5984828501610b83565b91505092915050565b6000610c6e8383610dbd565b60c08301905092915050565b610c8381611038565b82525050565b610c9281611026565b82525050565b610ca9610ca482611026565b611118565b82525050565b6000610cba82610fec565b610cc48185611004565b9350610ccf83610fdc565b8060005b83811015610d00578151610ce78882610c62565b9750610cf283610ff7565b925050600181019050610cd3565b5085935050505092915050565b610d168161104a565b82525050565b610d2d610d288261104a565b61112a565b82525050565b610d3c81611076565b82525050565b610d4b81611076565b82525050565b610d62610d5d82611076565b611134565b82525050565b610d71816110bd565b82525050565b6000610d84601483611015565b9150610d8f826111bb565b602082019050919050565b6000610da7600c83611015565b9150610db2826111e4565b602082019050919050565b60c082016000820151610dd36000850182610eb3565b506020820151610de66020850182610eb3565b506040820151610df96040850182610d33565b506060820151610e0c6060850182610c89565b506080820151610e1f6080850182610d0d565b5060a0820151610e3260a0850182610d68565b50505050565b60c082016000820151610e4e6000850182610eb3565b506020820151610e616020850182610eb3565b506040820151610e746040850182610d33565b506060820151610e876060850182610c89565b506080820151610e9a6080850182610d0d565b5060a0820151610ead60a0850182610d68565b50505050565b610ebc816110b3565b82525050565b610ecb816110b3565b82525050565b6000610edd8286610d1c565b601082019150610eed8285610d51565b602082019150610efd8284610c98565b601482019150819050949350505050565b6000602082019050610f236000830184610c7a565b92915050565b60006020820190508181036000830152610f438184610caf565b905092915050565b6000602082019050610f606000830184610d42565b92915050565b60006020820190508181036000830152610f7f81610d77565b9050919050565b60006020820190508181036000830152610f9f81610d9a565b9050919050565b600060c082019050610fbb6000830184610e38565b92915050565b6000602082019050610fd66000830184610ec2565b92915050565b6000819050602082019050919050565b600081519050919050565b6000602082019050919050565b600082825260208201905092915050565b600082825260208201905092915050565b600061103182611093565b9050919050565b600061104382611093565b9050919050565b60007fffffffffffffffffffffffffffffffff0000000000000000000000000000000082169050919050565b6000819050919050565b600081905061108e8261120d565b919050565b600073ffffffffffffffffffffffffffffffffffffffff82169050919050565b6000819050919050565b60006110c882611080565b9050919050565b60006110da826110b3565b91507fffffffffffffffffffffffffffffffffffffffffffffffffffffffffffffffff82141561110d5761110c611150565b5b600182019050919050565b60006111238261113e565b9050919050565b6000819050919050565b6000819050919050565b6000611149826111ae565b9050919050565b7f4e487b7100000000000000000000000000000000000000000000000000000000600052601160045260246000fd5b7f4e487b7100000000000000000000000000000000000000000000000000000000600052602160045260246000fd5b60008160601b9050919050565b7f4f6e6c79206d616e6167657220616c6c6f776564000000000000000000000000600082015250565b7f53616d6520616464726573730000000000000000000000000000000000000000600082015250565b6003811061121e5761121d61117f565b5b50565b61122a81611026565b811461123557600080fd5b50565b6112418161104a565b811461124c57600080fd5b50565b61125881611076565b811461126357600080fd5b50565b61126f816110b3565b811461127a57600080fd5b5056fea2646970667358221220313910f335daf216bf5b50df3f6eed3b36910c44d3473c0700de2d2309b440ff64736f6c63430008040033",
  "immutableReferences": {},
  "source": "// SPDX-License-Identifier: MIT\npragma solidity >=0.4.22 <0.9.0;\n\ncontract CourseMarketplace {\n\n  enum State {\n    Purchased,\n    Activated,\n    Deactivated\n  }\n\n  struct Course {\n    uint id; // 32\n    uint price; // 32\n    bytes32 proof; // 32\n    address owner; // 20\n    bytes16 courseId; // 16\n    State state; // 1\n  }\n\n  // number of all courses + id of the course\n  uint public totalOwnedCourses;\n\n  // mapping of courseHash to Course data\n  mapping(bytes32 => Course) private ownedCourses;\n\n  // mapping of courseID to courseHash\n  mapping(uint => bytes32) private ownedCourseHash;\n\n  mapping(bytes32 => bytes32[]) private emailToCourses;\n\n  bytes32[] private allEmailHashes;\n\n  address payable public owner;\n\n  /// The course has been purchased\n  error hasOwnership();\n\n  modifier restricted(address newOwner) {\n        require(msg.sender == owner, \"Only manager allowed\");\n        require(owner != newOwner, \"Same address\");\n        _;\n    }\n\n  constructor(){\n    owner = payable(msg.sender);\n  }\n\n  function purchaseCourse(\n    bytes16 courseId, // 0x00000000000000000000000000003130\n    bytes32 proof, // 0x0000000000000000000000000000313000000000000000000000000000003130\n    bytes32 emailHash\n  )\n    external\n    payable\n  {\n\n    bytes32 courseHash = keccak256(abi.encodePacked(courseId, emailHash, msg.sender));\n\n    if(hasCourseOwnership(courseHash)){\n        revert hasOwnership();\n    } \n\n\n    uint id = totalOwnedCourses++;\n\n    ownedCourseHash[id] = courseHash;\n    ownedCourses[courseHash] = Course({\n      id: id,\n      price: msg.value,\n      proof: proof,\n      owner: msg.sender,\n      courseId: courseId,\n      state: State.Purchased\n    });\n\n    // Map emailHash to purchased course\n    emailToCourses[emailHash].push(courseHash);\n\n    // Optional: track all email hashes (only if new)\n    if(emailToCourses[emailHash].length == 1) {\n      allEmailHashes.push(emailHash);\n    }\n  }\n\n  function getOwnedCourseHash(uint index) external view returns(bytes32){\n    return ownedCourseHash[index];\n  }\n\n  function getOwnedCourse(bytes32 hash) external view returns(Course memory){\n    return ownedCourses[hash];\n  }\n\n  function hasCourseOwnership(bytes32 hash) internal view returns(bool){\n    return(ownedCourses[hash].owner == msg.sender);\n    }  \n\n  function setContractOwner(address newOwner) external restricted(newOwner){\n    owner = payable(newOwner);\n  } \n\n  function getCoursesByEmail(bytes32 emailHash) external view returns (Course[] memory) {\n    bytes32[] storage hashes = emailToCourses[emailHash];\n    Course[] memory courses = new Course[](hashes.length);\n\n    for (uint i = 0; i < hashes.length; i++) {\n        courses[i] = ownedCourses[hashes[i]];\n    }\n\n    return courses;\n  }\n}",
  "sourcePath": "/Users/benoit/Documents/programming/Eth/marketplace-eth/contracts/CourseMarketplace.sol",
  "compiler": {
    "name": "solc",
    "version": "0.8.4+commit.c7e474f2.Emscripten.clang"
  },
  "schemaVersion": "3.4.16",
  "updatedAt": "2026-02-19T19:12:07.143Z",
  "devdoc": {
    "kind": "dev",
    "methods": {},
    "version": 1
  },
  "userdoc": {
    "errors": {
      "hasOwnership()": [
        {
          "notice": "The course has been purchased"
        }
      ]
    },
    "kind": "user",
    "methods": {},
    "version": 1
  }
}