{
  "contractName": "CourseMarketplace",
  "abi": [
    {
      "inputs": [],
      "stateMutability": "nonpayable",
      "type": "constructor"
    },
    {
      "inputs": [],
      "name": "hasOwnership",
      "type": "error"
    },
    {
      "inputs": [],
      "name": "isStopped",
      "outputs": [
        {
          "internalType": "bool",
          "name": "",
          "type": "bool"
        }
      ],
      "stateMutability": "view",
      "type": "function",
      "constant": true
    },
    {
      "inputs": [],
      "name": "owner",
      "outputs": [
        {
          "internalType": "address payable",
          "name": "",
          "type": "address"
        }
      ],
      "stateMutability": "view",
      "type": "function",
      "constant": true
    },
    {
      "inputs": [],
      "name": "totalOwnedCourses",
      "outputs": [
        {
          "internalType": "uint256",
          "name": "",
          "type": "uint256"
        }
      ],
      "stateMutability": "view",
      "type": "function",
      "constant": true
    },
    {
      "stateMutability": "payable",
      "type": "receive",
      "payable": true
    },
    {
      "inputs": [],
      "name": "stopContract",
      "outputs": [],
      "stateMutability": "nonpayable",
      "type": "function"
    },
    {
      "inputs": [],
      "name": "resumeContract",
      "outputs": [],
      "stateMutability": "nonpayable",
      "type": "function"
    },
    {
      "inputs": [
        {
          "internalType": "bytes16",
          "name": "courseId",
          "type": "bytes16"
        },
        {
          "internalType": "bytes32",
          "name": "proof",
          "type": "bytes32"
        },
        {
          "internalType": "bytes32",
          "name": "emailHash",
          "type": "bytes32"
        }
      ],
      "name": "purchaseCourse",
      "outputs": [],
      "stateMutability": "payable",
      "type": "function",
      "payable": true
    },
    {
      "inputs": [],
      "name": "shutdown",
      "outputs": [],
      "stateMutability": "nonpayable",
      "type": "function"
    },
    {
      "inputs": [
        {
          "internalType": "uint256",
          "name": "amount",
          "type": "uint256"
        }
      ],
      "name": "withdraw",
      "outputs": [],
      "stateMutability": "nonpayable",
      "type": "function"
    },
    {
      "inputs": [],
      "name": "withdrawAllBalance",
      "outputs": [],
      "stateMutability": "nonpayable",
      "type": "function"
    },
    {
      "inputs": [
        {
          "internalType": "uint256",
          "name": "index",
          "type": "uint256"
        }
      ],
      "name": "getOwnedCourseHash",
      "outputs": [
        {
          "internalType": "bytes32",
          "name": "",
          "type": "bytes32"
        }
      ],
      "stateMutability": "view",
      "type": "function",
      "constant": true
    },
    {
      "inputs": [
        {
          "internalType": "bytes32",
          "name": "hash",
          "type": "bytes32"
        }
      ],
      "name": "getOwnedCourse",
      "outputs": [
        {
          "components": [
            {
              "internalType": "uint256",
              "name": "id",
              "type": "uint256"
            },
            {
              "internalType": "uint256",
              "name": "price",
              "type": "uint256"
            },
            {
              "internalType": "bytes32",
              "name": "proof",
              "type": "bytes32"
            },
            {
              "internalType": "address",
              "name": "owner",
              "type": "address"
            },
            {
              "internalType": "bytes16",
              "name": "courseId",
              "type": "bytes16"
            }
          ],
          "internalType": "struct CourseMarketplace.Course",
          "name": "",
          "type": "tuple"
        }
      ],
      "stateMutability": "view",
      "type": "function",
      "constant": true
    },
    {
      "inputs": [
        {
          "internalType": "address",
          "name": "newOwner",
          "type": "address"
        }
      ],
      "name": "setContractOwner",
      "outputs": [],
      "stateMutability": "nonpayable",
      "type": "function"
    },
    {
      "inputs": [
        {
          "internalType": "bytes32",
          "name": "emailHash",
          "type": "bytes32"
        }
      ],
      "name": "getCoursesByEmail",
      "outputs": [
        {
          "components": [
            {
              "internalType": "uint256",
              "name": "id",
              "type": "uint256"
            },
            {
              "internalType": "uint256",
              "name": "price",
              "type": "uint256"
            },
            {
              "internalType": "bytes32",
              "name": "proof",
              "type": "bytes32"
            },
            {
              "internalType": "address",
              "name": "owner",
              "type": "address"
            },
            {
              "internalType": "bytes16",
              "name": "courseId",
              "type": "bytes16"
            }
          ],
          "internalType": "struct CourseMarketplace.Course[]",
          "name": "",
          "type": "tuple[]"
        }
      ],
      "stateMutability": "view",
      "type": "function",
      "constant": true
    }
  ],
  "bytecode": "0x608060405234801561001057600080fd5b5033600560006101000a81548173ffffffffffffffffffffffffffffffffffffffff021916908373ffffffffffffffffffffffffffffffffffffffff160217905550611959806100616000396000f3fe6080604052600436106100c65760003560e01c80637437ac5c1161007f578063b4f7665b11610059578063b4f7665b1461023e578063c4bc5da514610269578063e82400bc14610280578063fc0e74d1146102bd576100cd565b80637437ac5c146101ad5780638da5cb5b146101ea578063a34d42b814610215576100cd565b806312253a6c146100d25780632e1a7d4d146100e95780633a102ec8146101125780633b17eadc1461012e5780633f683b6a146101455780635c8062ba14610170576100cd565b366100cd57005b600080fd5b3480156100de57600080fd5b506100e76102d4565b005b3480156100f557600080fd5b50610110600480360381019061010b91906111bc565b610381565b005b61012c60048036038101906101279190611144565b6104e3565b005b34801561013a57600080fd5b5061014361075f565b005b34801561015157600080fd5b5061015a6108c0565b6040516101679190611549565b60405180910390f35b34801561017c57600080fd5b5061019760048036038101906101929190611193565b6108d3565b6040516101a49190611527565b60405180910390f35b3480156101b957600080fd5b506101d460048036038101906101cf9190611193565b610b47565b6040516101e1919061161f565b60405180910390f35b3480156101f657600080fd5b506101ff610c25565b60405161020c919061150c565b60405180910390f35b34801561022157600080fd5b5061023c6004803603810190610237919061111b565b610c4b565b005b34801561024a57600080fd5b50610253610db2565b604051610260919061163a565b60405180910390f35b34801561027557600080fd5b5061027e610db8565b005b34801561028c57600080fd5b506102a760048036038101906102a291906111bc565b610e65565b6040516102b49190611564565b60405180910390f35b3480156102c957600080fd5b506102d2610e82565b005b600560009054906101000a900473ffffffffffffffffffffffffffffffffffffffff1673ffffffffffffffffffffffffffffffffffffffff163373ffffffffffffffffffffffffffffffffffffffff1614610364576040517f08c379a000000000000000000000000000000000000000000000000000000000815260040161035b9061157f565b60405180910390fd5b6001600560146101000a81548160ff021916908315150217905550565b600560009054906101000a900473ffffffffffffffffffffffffffffffffffffffff1673ffffffffffffffffffffffffffffffffffffffff163373ffffffffffffffffffffffffffffffffffffffff1614610411576040517f08c379a00000000000000000000000000000000000000000000000000000000081526004016104089061157f565b60405180910390fd5b6000600560009054906101000a900473ffffffffffffffffffffffffffffffffffffffff1673ffffffffffffffffffffffffffffffffffffffff1682604051610459906114f7565b60006040518083038185875af1925050503d8060008114610496576040519150601f19603f3d011682016040523d82523d6000602084013e61049b565b606091505b50509050806104df576040517f08c379a00000000000000000000000000000000000000000000000000000000081526004016104d6906115bf565b60405180910390fd5b5050565b60001515600560149054906101000a900460ff16151514610539576040517f08c379a0000000000000000000000000000000000000000000000000000000008152600401610530906115ff565b60405180910390fd5b6000838233604051602001610550939291906114ba565b60405160208183030381529060405280519060200120905061057181610ffe565b156105a8576040517f95076d8b00000000000000000000000000000000000000000000000000000000815260040160405180910390fd5b60008060008154809291906105bc9061173a565b9190505590508160026000838152602001908152602001600020819055506040518060a001604052808281526020013481526020018581526020013373ffffffffffffffffffffffffffffffffffffffff168152602001866fffffffffffffffffffffffffffffffff19168152506001600084815260200190815260200160002060008201518160000155602082015181600101556040820151816002015560608201518160030160006101000a81548173ffffffffffffffffffffffffffffffffffffffff021916908373ffffffffffffffffffffffffffffffffffffffff16021790555060808201518160040160006101000a8154816fffffffffffffffffffffffffffffffff021916908360801c0217905550905050600360008481526020019081526020016000208290806001815401808255809150506001900390600052602060002001600090919091909150556001600360008581526020019081526020016000208054905014156107585760048390806001815401808255809150506001900390600052602060002001600090919091909150555b5050505050565b600560009054906101000a900473ffffffffffffffffffffffffffffffffffffffff1673ffffffffffffffffffffffffffffffffffffffff163373ffffffffffffffffffffffffffffffffffffffff16146107ef576040517f08c379a00000000000000000000000000000000000000000000000000000000081526004016107e69061157f565b60405180910390fd5b6000600560009054906101000a900473ffffffffffffffffffffffffffffffffffffffff1673ffffffffffffffffffffffffffffffffffffffff1647604051610837906114f7565b60006040518083038185875af1925050503d8060008114610874576040519150601f19603f3d011682016040523d82523d6000602084013e610879565b606091505b50509050806108bd576040517f08c379a00000000000000000000000000000000000000000000000000000000081526004016108b4906115bf565b60405180910390fd5b50565b600560149054906101000a900460ff1681565b606060001515600560149054906101000a900460ff1615151461092b576040517f08c379a0000000000000000000000000000000000000000000000000000000008152600401610922906115ff565b60405180910390fd5b60006003600084815260200190815260200160002090506000818054905067ffffffffffffffff811115610988577f4e487b7100000000000000000000000000000000000000000000000000000000600052604160045260246000fd5b6040519080825280602002602001820160405280156109c157816020015b6109ae61106c565b8152602001906001900390816109a65790505b50905060005b8280549050811015610b3c5760016000848381548110610a10577f4e487b7100000000000000000000000000000000000000000000000000000000600052603260045260246000fd5b906000526020600020015481526020019081526020016000206040518060a00160405290816000820154815260200160018201548152602001600282015481526020016003820160009054906101000a900473ffffffffffffffffffffffffffffffffffffffff1673ffffffffffffffffffffffffffffffffffffffff1673ffffffffffffffffffffffffffffffffffffffff1681526020016004820160009054906101000a900460801b6fffffffffffffffffffffffffffffffff19166fffffffffffffffffffffffffffffffff191681525050828281518110610b1e577f4e487b7100000000000000000000000000000000000000000000000000000000600052603260045260246000fd5b60200260200101819052508080610b349061173a565b9150506109c7565b508092505050919050565b610b4f61106c565b600160008381526020019081526020016000206040518060a00160405290816000820154815260200160018201548152602001600282015481526020016003820160009054906101000a900473ffffffffffffffffffffffffffffffffffffffff1673ffffffffffffffffffffffffffffffffffffffff1673ffffffffffffffffffffffffffffffffffffffff1681526020016004820160009054906101000a900460801b6fffffffffffffffffffffffffffffffff19166fffffffffffffffffffffffffffffffff1916815250509050919050565b600560009054906101000a900473ffffffffffffffffffffffffffffffffffffffff1681565b80600560009054906101000a900473ffffffffffffffffffffffffffffffffffffffff1673ffffffffffffffffffffffffffffffffffffffff163373ffffffffffffffffffffffffffffffffffffffff1614610cdc576040517f08c379a0000000000000000000000000000000000000000000000000000000008152600401610cd39061157f565b60405180910390fd5b8073ffffffffffffffffffffffffffffffffffffffff16600560009054906101000a900473ffffffffffffffffffffffffffffffffffffffff1673ffffffffffffffffffffffffffffffffffffffff161415610d6d576040517f08c379a0000000000000000000000000000000000000000000000000000000008152600401610d64906115df565b60405180910390fd5b81600560006101000a81548173ffffffffffffffffffffffffffffffffffffffff021916908373ffffffffffffffffffffffffffffffffffffffff1602179055505050565b60005481565b600560009054906101000a900473ffffffffffffffffffffffffffffffffffffffff1673ffffffffffffffffffffffffffffffffffffffff163373ffffffffffffffffffffffffffffffffffffffff1614610e48576040517f08c379a0000000000000000000000000000000000000000000000000000000008152600401610e3f9061157f565b60405180910390fd5b6000600560146101000a81548160ff021916908315150217905550565b600060026000838152602001908152602001600020549050919050565b600560009054906101000a900473ffffffffffffffffffffffffffffffffffffffff1673ffffffffffffffffffffffffffffffffffffffff163373ffffffffffffffffffffffffffffffffffffffff1614610f12576040517f08c379a0000000000000000000000000000000000000000000000000000000008152600401610f099061157f565b60405180910390fd5b6001600560146101000a81548160ff0219169083151502179055506000600560009054906101000a900473ffffffffffffffffffffffffffffffffffffffff1673ffffffffffffffffffffffffffffffffffffffff1647604051610f75906114f7565b60006040518083038185875af1925050503d8060008114610fb2576040519150601f19603f3d011682016040523d82523d6000602084013e610fb7565b606091505b5050905080610ffb576040517f08c379a0000000000000000000000000000000000000000000000000000000008152600401610ff29061159f565b60405180910390fd5b50565b60003373ffffffffffffffffffffffffffffffffffffffff166001600084815260200190815260200160002060030160009054906101000a900473ffffffffffffffffffffffffffffffffffffffff1673ffffffffffffffffffffffffffffffffffffffff16149050919050565b6040518060a00160405280600081526020016000815260200160008019168152602001600073ffffffffffffffffffffffffffffffffffffffff16815260200160006fffffffffffffffffffffffffffffffff191681525090565b6000813590506110d6816118c7565b92915050565b6000813590506110eb816118de565b92915050565b600081359050611100816118f5565b92915050565b6000813590506111158161190c565b92915050565b60006020828403121561112d57600080fd5b600061113b848285016110c7565b91505092915050565b60008060006060848603121561115957600080fd5b6000611167868287016110dc565b9350506020611178868287016110f1565b9250506040611189868287016110f1565b9150509250925092565b6000602082840312156111a557600080fd5b60006111b3848285016110f1565b91505092915050565b6000602082840312156111ce57600080fd5b60006111dc84828501611106565b91505092915050565b60006111f183836113cc565b60a08301905092915050565b611206816116bc565b82525050565b611215816116aa565b82525050565b61122c611227826116aa565b611783565b82525050565b600061123d82611665565b611247818561167d565b935061125283611655565b8060005b8381101561128357815161126a88826111e5565b975061127583611670565b925050600181019050611256565b5085935050505092915050565b611299816116ce565b82525050565b6112a8816116da565b82525050565b6112bf6112ba826116da565b611795565b82525050565b6112ce81611706565b82525050565b6112dd81611706565b82525050565b6112f46112ef82611706565b61179f565b82525050565b6000611307601483611699565b9150611312826117f7565b602082019050919050565b600061132a600f83611699565b915061133582611820565b602082019050919050565b600061134d601983611699565b915061135882611849565b602082019050919050565b6000611370600c83611699565b915061137b82611872565b602082019050919050565b6000611393601383611699565b915061139e8261189b565b602082019050919050565b60006113b660008361168e565b91506113c1826118c4565b600082019050919050565b60a0820160008201516113e2600085018261149c565b5060208201516113f5602085018261149c565b50604082015161140860408501826112c5565b50606082015161141b606085018261120c565b50608082015161142e608085018261129f565b50505050565b60a08201600082015161144a600085018261149c565b50602082015161145d602085018261149c565b50604082015161147060408501826112c5565b506060820151611483606085018261120c565b506080820151611496608085018261129f565b50505050565b6114a581611730565b82525050565b6114b481611730565b82525050565b60006114c682866112ae565b6010820191506114d682856112e3565b6020820191506114e6828461121b565b601482019150819050949350505050565b6000611502826113a9565b9150819050919050565b600060208201905061152160008301846111fd565b92915050565b600060208201905081810360008301526115418184611232565b905092915050565b600060208201905061155e6000830184611290565b92915050565b600060208201905061157960008301846112d4565b92915050565b60006020820190508181036000830152611598816112fa565b9050919050565b600060208201905081810360008301526115b88161131d565b9050919050565b600060208201905081810360008301526115d881611340565b9050919050565b600060208201905081810360008301526115f881611363565b9050919050565b6000602082019050818103600083015261161881611386565b9050919050565b600060a0820190506116346000830184611434565b92915050565b600060208201905061164f60008301846114ab565b92915050565b6000819050602082019050919050565b600081519050919050565b6000602082019050919050565b600082825260208201905092915050565b600081905092915050565b600082825260208201905092915050565b60006116b582611710565b9050919050565b60006116c782611710565b9050919050565b60008115159050919050565b60007fffffffffffffffffffffffffffffffff0000000000000000000000000000000082169050919050565b6000819050919050565b600073ffffffffffffffffffffffffffffffffffffffff82169050919050565b6000819050919050565b600061174582611730565b91507fffffffffffffffffffffffffffffffffffffffffffffffffffffffffffffffff821415611778576117776117bb565b5b600182019050919050565b600061178e826117a9565b9050919050565b6000819050919050565b6000819050919050565b60006117b4826117ea565b9050919050565b7f4e487b7100000000000000000000000000000000000000000000000000000000600052601160045260246000fd5b60008160601b9050919050565b7f4f6e6c79206d616e6167657220616c6c6f776564000000000000000000000000600082015250565b7f5472616e73666572206661696c65640000000000000000000000000000000000600082015250565b7f6572726f7220647572696e6720746865206672616e7366657200000000000000600082015250565b7f53616d6520616464726573730000000000000000000000000000000000000000600082015250565b7f436f6e74726163742069732073746f7070656400000000000000000000000000600082015250565b50565b6118d0816116aa565b81146118db57600080fd5b50565b6118e7816116da565b81146118f257600080fd5b50565b6118fe81611706565b811461190957600080fd5b50565b61191581611730565b811461192057600080fd5b5056fea2646970667358221220b2950e0e338f52e1ec05806b8db5cd37c96c3f56211aff9b98fbaea7d4e299f864736f6c63430008040033",
  "immutableReferences": {},
  "source": "// SPDX-License-Identifier: MIT\npragma solidity >=0.4.22 <0.9.0;\n\ncontract CourseMarketplace {\n\n  enum State {\n    Purchased,\n    Activated,\n    Deactivated\n  }\n\n  struct Course {\n    uint id; // 32\n    uint price; // 32\n    bytes32 proof; // 32\n    address owner; // 20\n    bytes16 courseId; // 16\n  }\n\n  // number of all courses + id of the course\n  uint public totalOwnedCourses;\n\n  // mapping of courseHash to Course data\n  mapping(bytes32 => Course) private ownedCourses;\n\n  // mapping of courseID to courseHash\n  mapping(uint => bytes32) private ownedCourseHash;\n\n  mapping(bytes32 => bytes32[]) private emailToCourses;\n\n  bytes32[] private allEmailHashes;\n\n  address payable public owner;\n\n  bool public isStopped;\n\n  /// The course has been purchased\n  error hasOwnership();\n\n  modifier isContractStopped{\n        require(isStopped == false,\"Contract is stopped\");\n        _;\n  }\n\n  modifier onlyOwner {\n        require(msg.sender == owner, \"Only manager allowed\");\n        _;\n  }\n\n  modifier restricted(address newOwner) {\n        require(msg.sender == owner, \"Only manager allowed\");\n        require(owner != newOwner, \"Same address\");\n        _;\n  }\n\n  constructor(){\n    owner = payable(msg.sender);\n  }\n\n  function stopContract() external onlyOwner {\n    isStopped = true;\n  }\n\n  function resumeContract() external onlyOwner {\n    isStopped = false;\n  }\n\n  function purchaseCourse(\n    bytes16 courseId, // 0x00000000000000000000000000003130\n    bytes32 proof, // 0x0000000000000000000000000000313000000000000000000000000000003130\n    bytes32 emailHash\n  )\n    external\n    payable isContractStopped\n  {\n\n    bytes32 courseHash = keccak256(abi.encodePacked(courseId, emailHash, msg.sender));\n\n    if(hasCourseOwnership(courseHash)){\n        revert hasOwnership();\n    } \n\n\n    uint id = totalOwnedCourses++;\n\n    ownedCourseHash[id] = courseHash;\n    ownedCourses[courseHash] = Course({\n      id: id,\n      price: msg.value,\n      proof: proof,\n      owner: msg.sender,\n      courseId: courseId\n    });\n\n    // Map emailHash to purchased course\n    emailToCourses[emailHash].push(courseHash);\n\n    // Optional: track all email hashes (only if new)\n    if(emailToCourses[emailHash].length == 1) {\n      allEmailHashes.push(emailHash);\n    }\n  }\n\n  function shutdown() external onlyOwner {\n    isStopped = true;\n    (bool success,) = owner.call{value: address(this).balance}(\"\");\n    require(success, \"Transfer failed\");\n}\n\n  receive() external payable{\n  }\n\n  function withdraw(uint amount) external onlyOwner{\n    (bool success,) = owner.call{value: amount}(\"\");\n    require(success,\"error during the fransfer\");\n  }\n\n  function withdrawAllBalance() external onlyOwner{\n    (bool success,) = owner.call{value: address(this).balance}(\"\");\n    require(success,\"error during the fransfer\");\n  }\n\n  function getOwnedCourseHash(uint index) external view returns(bytes32){\n    return ownedCourseHash[index];\n  }\n\n  function getOwnedCourse(bytes32 hash) external view returns(Course memory){\n    return ownedCourses[hash];\n  }\n\n  function hasCourseOwnership(bytes32 hash) internal view returns(bool){\n    return(ownedCourses[hash].owner == msg.sender);\n    }  \n\n  function setContractOwner(address newOwner) external restricted(newOwner){\n    owner = payable(newOwner);\n  } \n\n  function getCoursesByEmail(bytes32 emailHash) external view isContractStopped returns (Course[] memory) {\n    bytes32[] storage hashes = emailToCourses[emailHash];\n    Course[] memory courses = new Course[](hashes.length);\n\n    for (uint i = 0; i < hashes.length; i++) {\n        courses[i] = ownedCourses[hashes[i]];\n    }\n\n    return courses;\n  }\n}",
  "sourcePath": "/Users/benoit/Documents/programming/Eth/marketplace-eth/contracts/CourseMarketplace.sol",
  "compiler": {
    "name": "solc",
    "version": "0.8.4+commit.c7e474f2.Emscripten.clang"
  },
  "schemaVersion": "3.4.16",
  "updatedAt": "2026-02-22T12:15:37.484Z",
  "networkType": "ethereum",
  "devdoc": {
    "kind": "dev",
    "methods": {},
    "version": 1
  },
  "userdoc": {
    "errors": {
      "hasOwnership()": [
        {
          "notice": "The course has been purchased"
        }
      ]
    },
    "kind": "user",
    "methods": {},
    "version": 1
  }
}