{
  "contractName": "CourseMarketplace",
  "abi": [
    {
      "inputs": [],
      "stateMutability": "nonpayable",
      "type": "constructor"
    },
    {
      "inputs": [],
      "name": "hasOwnership",
      "type": "error"
    },
    {
      "inputs": [],
      "name": "owner",
      "outputs": [
        {
          "internalType": "address payable",
          "name": "",
          "type": "address"
        }
      ],
      "stateMutability": "view",
      "type": "function"
    },
    {
      "inputs": [],
      "name": "totalOwnedCourses",
      "outputs": [
        {
          "internalType": "uint256",
          "name": "",
          "type": "uint256"
        }
      ],
      "stateMutability": "view",
      "type": "function"
    },
    {
      "inputs": [
        {
          "internalType": "bytes16",
          "name": "courseId",
          "type": "bytes16"
        },
        {
          "internalType": "bytes32",
          "name": "proof",
          "type": "bytes32"
        }
      ],
      "name": "purchaseCourse",
      "outputs": [],
      "stateMutability": "payable",
      "type": "function"
    },
    {
      "inputs": [
        {
          "internalType": "uint256",
          "name": "index",
          "type": "uint256"
        }
      ],
      "name": "getOwnedCourseHash",
      "outputs": [
        {
          "internalType": "bytes32",
          "name": "",
          "type": "bytes32"
        }
      ],
      "stateMutability": "view",
      "type": "function"
    },
    {
      "inputs": [
        {
          "internalType": "bytes32",
          "name": "hash",
          "type": "bytes32"
        }
      ],
      "name": "getOwnedCourse",
      "outputs": [
        {
          "components": [
            {
              "internalType": "uint256",
              "name": "id",
              "type": "uint256"
            },
            {
              "internalType": "uint256",
              "name": "price",
              "type": "uint256"
            },
            {
              "internalType": "bytes32",
              "name": "proof",
              "type": "bytes32"
            },
            {
              "internalType": "address",
              "name": "owner",
              "type": "address"
            },
            {
              "internalType": "bytes16",
              "name": "courseId",
              "type": "bytes16"
            },
            {
              "internalType": "enum CourseMarketplace.State",
              "name": "state",
              "type": "uint8"
            }
          ],
          "internalType": "struct CourseMarketplace.Course",
          "name": "",
          "type": "tuple"
        }
      ],
      "stateMutability": "view",
      "type": "function"
    },
    {
      "inputs": [
        {
          "internalType": "address",
          "name": "newOwner",
          "type": "address"
        }
      ],
      "name": "setContractOwner",
      "outputs": [],
      "stateMutability": "nonpayable",
      "type": "function"
    }
  ],
  "bytecode": "0x608060405234801561001057600080fd5b5033600360006101000a81548173ffffffffffffffffffffffffffffffffffffffff021916908373ffffffffffffffffffffffffffffffffffffffff160217905550610d9f806100616000396000f3fe6080604052600436106100555760003560e01c80637437ac5c1461005a5780638da5cb5b14610097578063a34d42b8146100c2578063b4f7665b146100eb578063d76821cb14610116578063e82400bc14610132575b600080fd5b34801561006657600080fd5b50610081600480360381019061007c919061087a565b61016f565b60405161008e9190610ad5565b60405180910390f35b3480156100a357600080fd5b506100ac6102d4565b6040516100b99190610a5f565b60405180910390f35b3480156100ce57600080fd5b506100e960048036038101906100e49190610815565b6102fa565b005b3480156100f757600080fd5b50610100610461565b60405161010d9190610af0565b60405180910390f35b610130600480360381019061012b919061083e565b610467565b005b34801561013e57600080fd5b50610159600480360381019061015491906108a3565b61069c565b6040516101669190610a7a565b60405180910390f35b610177610727565b600160008381526020019081526020016000206040518060c00160405290816000820154815260200160018201548152602001600282015481526020016003820160009054906101000a900473ffffffffffffffffffffffffffffffffffffffff1673ffffffffffffffffffffffffffffffffffffffff1673ffffffffffffffffffffffffffffffffffffffff1681526020016004820160009054906101000a900460801b6fffffffffffffffffffffffffffffffff19166fffffffffffffffffffffffffffffffff191681526020016004820160109054906101000a900460ff166002811115610291577f4e487b7100000000000000000000000000000000000000000000000000000000600052602160045260246000fd5b60028111156102c9577f4e487b7100000000000000000000000000000000000000000000000000000000600052602160045260246000fd5b815250509050919050565b600360009054906101000a900473ffffffffffffffffffffffffffffffffffffffff1681565b80600360009054906101000a900473ffffffffffffffffffffffffffffffffffffffff1673ffffffffffffffffffffffffffffffffffffffff163373ffffffffffffffffffffffffffffffffffffffff161461038b576040517f08c379a000000000000000000000000000000000000000000000000000000000815260040161038290610a95565b60405180910390fd5b8073ffffffffffffffffffffffffffffffffffffffff16600360009054906101000a900473ffffffffffffffffffffffffffffffffffffffff1673ffffffffffffffffffffffffffffffffffffffff16141561041c576040517f08c379a000000000000000000000000000000000000000000000000000000000815260040161041390610ab5565b60405180910390fd5b81600360006101000a81548173ffffffffffffffffffffffffffffffffffffffff021916908373ffffffffffffffffffffffffffffffffffffffff1602179055505050565b60005481565b6000823360405160200161047c929190610a33565b60405160208183030381529060405280519060200120905061049d816106b9565b156104d4576040517f95076d8b00000000000000000000000000000000000000000000000000000000815260040160405180910390fd5b60008060008154809291906104e890610bc5565b9190505590508160026000838152602001908152602001600020819055506040518060c001604052808281526020013481526020018481526020013373ffffffffffffffffffffffffffffffffffffffff168152602001856fffffffffffffffffffffffffffffffff1916815260200160006002811115610592577f4e487b7100000000000000000000000000000000000000000000000000000000600052602160045260246000fd5b8152506001600084815260200190815260200160002060008201518160000155602082015181600101556040820151816002015560608201518160030160006101000a81548173ffffffffffffffffffffffffffffffffffffffff021916908373ffffffffffffffffffffffffffffffffffffffff16021790555060808201518160040160006101000a8154816fffffffffffffffffffffffffffffffff021916908360801c021790555060a08201518160040160106101000a81548160ff0219169083600281111561068e577f4e487b7100000000000000000000000000000000000000000000000000000000600052602160045260246000fd5b021790555090505050505050565b600060026000838152602001908152602001600020549050919050565b60003373ffffffffffffffffffffffffffffffffffffffff166001600084815260200190815260200160002060030160009054906101000a900473ffffffffffffffffffffffffffffffffffffffff1673ffffffffffffffffffffffffffffffffffffffff16149050919050565b6040518060c00160405280600081526020016000815260200160008019168152602001600073ffffffffffffffffffffffffffffffffffffffff16815260200160006fffffffffffffffffffffffffffffffff19168152602001600060028111156107bb577f4e487b7100000000000000000000000000000000000000000000000000000000600052602160045260246000fd5b81525090565b6000813590506107d081610d0d565b92915050565b6000813590506107e581610d24565b92915050565b6000813590506107fa81610d3b565b92915050565b60008135905061080f81610d52565b92915050565b60006020828403121561082757600080fd5b6000610835848285016107c1565b91505092915050565b6000806040838503121561085157600080fd5b600061085f858286016107d6565b9250506020610870858286016107eb565b9150509250929050565b60006020828403121561088c57600080fd5b600061089a848285016107eb565b91505092915050565b6000602082840312156108b557600080fd5b60006108c384828501610800565b91505092915050565b6108d581610b2e565b82525050565b6108e481610b1c565b82525050565b6108fb6108f682610b1c565b610c0e565b82525050565b61090a81610b40565b82525050565b61092161091c82610b40565b610c20565b82525050565b61093081610b6c565b82525050565b61093f81610b6c565b82525050565b61094e81610bb3565b82525050565b6000610961601483610b0b565b915061096c82610ca7565b602082019050919050565b6000610984600c83610b0b565b915061098f82610cd0565b602082019050919050565b60c0820160008201516109b06000850182610a15565b5060208201516109c36020850182610a15565b5060408201516109d66040850182610927565b5060608201516109e960608501826108db565b5060808201516109fc6080850182610901565b5060a0820151610a0f60a0850182610945565b50505050565b610a1e81610ba9565b82525050565b610a2d81610ba9565b82525050565b6000610a3f8285610910565b601082019150610a4f82846108ea565b6014820191508190509392505050565b6000602082019050610a7460008301846108cc565b92915050565b6000602082019050610a8f6000830184610936565b92915050565b60006020820190508181036000830152610aae81610954565b9050919050565b60006020820190508181036000830152610ace81610977565b9050919050565b600060c082019050610aea600083018461099a565b92915050565b6000602082019050610b056000830184610a24565b92915050565b600082825260208201905092915050565b6000610b2782610b89565b9050919050565b6000610b3982610b89565b9050919050565b60007fffffffffffffffffffffffffffffffff0000000000000000000000000000000082169050919050565b6000819050919050565b6000819050610b8482610cf9565b919050565b600073ffffffffffffffffffffffffffffffffffffffff82169050919050565b6000819050919050565b6000610bbe82610b76565b9050919050565b6000610bd082610ba9565b91507fffffffffffffffffffffffffffffffffffffffffffffffffffffffffffffffff821415610c0357610c02610c3c565b5b600182019050919050565b6000610c1982610c2a565b9050919050565b6000819050919050565b6000610c3582610c9a565b9050919050565b7f4e487b7100000000000000000000000000000000000000000000000000000000600052601160045260246000fd5b7f4e487b7100000000000000000000000000000000000000000000000000000000600052602160045260246000fd5b60008160601b9050919050565b7f4f6e6c79206d616e6167657220616c6c6f776564000000000000000000000000600082015250565b7f53616d6520616464726573730000000000000000000000000000000000000000600082015250565b60038110610d0a57610d09610c6b565b5b50565b610d1681610b1c565b8114610d2157600080fd5b50565b610d2d81610b40565b8114610d3857600080fd5b50565b610d4481610b6c565b8114610d4f57600080fd5b50565b610d5b81610ba9565b8114610d6657600080fd5b5056fea2646970667358221220f6791c3a06c2ca9922747e0f98ee9abbe2064a4856e819f44491624a331b80ba64736f6c63430008040033",
  "immutableReferences": {},
  "source": "// SPDX-License-Identifier: MIT\r\npragma solidity >=0.4.22 <0.9.0;\r\n\r\ncontract CourseMarketplace {\r\n\r\n  enum State {\r\n    Purchased,\r\n    Activated,\r\n    Deactivated\r\n  }\r\n\r\n  struct Course {\r\n    uint id; // 32\r\n    uint price; // 32\r\n    bytes32 proof; // 32\r\n    address owner; // 20\r\n    bytes16 courseId; // 16\r\n    State state; // 1\r\n  }\r\n\r\n  // number of all courses + id of the course\r\n  uint public totalOwnedCourses;\r\n\r\n  // mapping of courseHash to Course data\r\n  mapping(bytes32 => Course) private ownedCourses;\r\n\r\n  // mapping of courseID to courseHash\r\n  mapping(uint => bytes32) private ownedCourseHash;\r\n\r\n  address payable public owner;\r\n\r\n  /// The course has been purchased\r\n  error hasOwnership();\r\n\r\n  modifier restricted(address newOwner) {\r\n        require(msg.sender == owner, \"Only manager allowed\");\r\n        require(owner != newOwner, \"Same address\");\r\n        _;\r\n    }\r\n\r\n  constructor(){\r\n    owner = payable(msg.sender);\r\n  }\r\n\r\n  function purchaseCourse(\r\n    bytes16 courseId, // 0x00000000000000000000000000003130\r\n    bytes32 proof // 0x0000000000000000000000000000313000000000000000000000000000003130\r\n  )\r\n    external\r\n    payable\r\n  {\r\n\r\n    bytes32 courseHash = keccak256(abi.encodePacked(courseId, msg.sender));\r\n\r\n    if(hasCourseOwnership(courseHash)){\r\n        revert hasOwnership();\r\n    } \r\n\r\n\r\n    uint id = totalOwnedCourses++;\r\n\r\n    ownedCourseHash[id] = courseHash;\r\n    ownedCourses[courseHash] = Course({\r\n      id: id,\r\n      price: msg.value,\r\n      proof: proof,\r\n      owner: msg.sender,\r\n      courseId: courseId,\r\n      state: State.Purchased\r\n    });\r\n  }\r\n\r\n  function getOwnedCourseHash(uint index) external view returns(bytes32){\r\n    return ownedCourseHash[index];\r\n  }\r\n\r\n  function getOwnedCourse(bytes32 hash) external view returns(Course memory){\r\n    return ownedCourses[hash];\r\n  }\r\n\r\n  function hasCourseOwnership(bytes32 hash) internal view returns(bool){\r\n    return(ownedCourses[hash].owner == msg.sender);\r\n    }  \r\n\r\n    function setContractOwner(address newOwner) external restricted(newOwner){\r\n       \r\n        owner = payable(newOwner);\r\n    } \r\n}",
  "sourcePath": "C:\\tests projects\\Eth\\marketplace-eth\\contracts\\CourseMarketplace.sol",
  "compiler": {
    "name": "solc",
    "version": "0.8.4+commit.c7e474f2.Emscripten.clang"
  },
  "schemaVersion": "3.4.16",
  "updatedAt": "2026-02-10T15:17:46.708Z",
  "devdoc": {
    "kind": "dev",
    "methods": {},
    "version": 1
  },
  "userdoc": {
    "errors": {
      "hasOwnership()": [
        {
          "notice": "The course has been purchased"
        }
      ]
    },
    "kind": "user",
    "methods": {},
    "version": 1
  }
}