{
  "contractName": "CourseMarketplaceZep",
  "abi": [
    {
      "inputs": [],
      "stateMutability": "nonpayable",
      "type": "constructor"
    },
    {
      "inputs": [],
      "name": "HasOwnership",
      "type": "error"
    },
    {
      "anonymous": false,
      "inputs": [
        {
          "indexed": true,
          "internalType": "address",
          "name": "by",
          "type": "address"
        }
      ],
      "name": "ContractResumed",
      "type": "event"
    },
    {
      "anonymous": false,
      "inputs": [
        {
          "indexed": true,
          "internalType": "address",
          "name": "by",
          "type": "address"
        }
      ],
      "name": "ContractStopped",
      "type": "event"
    },
    {
      "anonymous": false,
      "inputs": [
        {
          "indexed": true,
          "internalType": "address",
          "name": "buyer",
          "type": "address"
        },
        {
          "indexed": true,
          "internalType": "bytes16",
          "name": "courseId",
          "type": "bytes16"
        },
        {
          "indexed": false,
          "internalType": "uint256",
          "name": "price",
          "type": "uint256"
        }
      ],
      "name": "CoursePurchased",
      "type": "event"
    },
    {
      "anonymous": false,
      "inputs": [
        {
          "indexed": true,
          "internalType": "address",
          "name": "previousOwner",
          "type": "address"
        },
        {
          "indexed": true,
          "internalType": "address",
          "name": "newOwner",
          "type": "address"
        }
      ],
      "name": "OwnershipTransferred",
      "type": "event"
    },
    {
      "anonymous": false,
      "inputs": [
        {
          "indexed": true,
          "internalType": "address",
          "name": "owner",
          "type": "address"
        },
        {
          "indexed": false,
          "internalType": "uint256",
          "name": "amount",
          "type": "uint256"
        }
      ],
      "name": "Shutdown",
      "type": "event"
    },
    {
      "anonymous": false,
      "inputs": [
        {
          "indexed": true,
          "internalType": "address",
          "name": "to",
          "type": "address"
        },
        {
          "indexed": false,
          "internalType": "uint256",
          "name": "amount",
          "type": "uint256"
        }
      ],
      "name": "Withdraw",
      "type": "event"
    },
    {
      "inputs": [],
      "name": "isStopped",
      "outputs": [
        {
          "internalType": "bool",
          "name": "",
          "type": "bool"
        }
      ],
      "stateMutability": "view",
      "type": "function",
      "constant": true
    },
    {
      "inputs": [],
      "name": "owner",
      "outputs": [
        {
          "internalType": "address",
          "name": "",
          "type": "address"
        }
      ],
      "stateMutability": "view",
      "type": "function",
      "constant": true
    },
    {
      "inputs": [],
      "name": "renounceOwnership",
      "outputs": [],
      "stateMutability": "nonpayable",
      "type": "function"
    },
    {
      "inputs": [],
      "name": "totalOwnedCourses",
      "outputs": [
        {
          "internalType": "uint256",
          "name": "",
          "type": "uint256"
        }
      ],
      "stateMutability": "view",
      "type": "function",
      "constant": true
    },
    {
      "inputs": [
        {
          "internalType": "address",
          "name": "newOwner",
          "type": "address"
        }
      ],
      "name": "transferOwnership",
      "outputs": [],
      "stateMutability": "nonpayable",
      "type": "function"
    },
    {
      "inputs": [],
      "name": "stopContract",
      "outputs": [],
      "stateMutability": "nonpayable",
      "type": "function"
    },
    {
      "inputs": [],
      "name": "resumeContract",
      "outputs": [],
      "stateMutability": "nonpayable",
      "type": "function"
    },
    {
      "inputs": [
        {
          "internalType": "bytes16",
          "name": "courseId",
          "type": "bytes16"
        },
        {
          "internalType": "bytes32",
          "name": "proof",
          "type": "bytes32"
        },
        {
          "internalType": "bytes32",
          "name": "emailHash",
          "type": "bytes32"
        }
      ],
      "name": "purchaseCourse",
      "outputs": [],
      "stateMutability": "payable",
      "type": "function",
      "payable": true
    },
    {
      "inputs": [
        {
          "internalType": "uint256",
          "name": "amount",
          "type": "uint256"
        }
      ],
      "name": "withdraw",
      "outputs": [],
      "stateMutability": "nonpayable",
      "type": "function"
    },
    {
      "inputs": [],
      "name": "withdrawAllBalance",
      "outputs": [],
      "stateMutability": "nonpayable",
      "type": "function"
    },
    {
      "inputs": [],
      "name": "shutdown",
      "outputs": [],
      "stateMutability": "nonpayable",
      "type": "function"
    },
    {
      "inputs": [
        {
          "internalType": "uint256",
          "name": "index",
          "type": "uint256"
        }
      ],
      "name": "getOwnedCourseHash",
      "outputs": [
        {
          "internalType": "bytes32",
          "name": "",
          "type": "bytes32"
        }
      ],
      "stateMutability": "view",
      "type": "function",
      "constant": true
    },
    {
      "inputs": [
        {
          "internalType": "bytes32",
          "name": "hash",
          "type": "bytes32"
        }
      ],
      "name": "getOwnedCourse",
      "outputs": [
        {
          "components": [
            {
              "internalType": "uint256",
              "name": "id",
              "type": "uint256"
            },
            {
              "internalType": "uint256",
              "name": "price",
              "type": "uint256"
            },
            {
              "internalType": "bytes32",
              "name": "proof",
              "type": "bytes32"
            },
            {
              "internalType": "address",
              "name": "owner",
              "type": "address"
            },
            {
              "internalType": "bytes16",
              "name": "courseId",
              "type": "bytes16"
            },
            {
              "internalType": "enum CourseMarketplaceZep.State",
              "name": "state",
              "type": "uint8"
            }
          ],
          "internalType": "struct CourseMarketplaceZep.Course",
          "name": "",
          "type": "tuple"
        }
      ],
      "stateMutability": "view",
      "type": "function",
      "constant": true
    },
    {
      "inputs": [
        {
          "internalType": "bytes32",
          "name": "emailHash",
          "type": "bytes32"
        }
      ],
      "name": "getCoursesByEmail",
      "outputs": [
        {
          "components": [
            {
              "internalType": "uint256",
              "name": "id",
              "type": "uint256"
            },
            {
              "internalType": "uint256",
              "name": "price",
              "type": "uint256"
            },
            {
              "internalType": "bytes32",
              "name": "proof",
              "type": "bytes32"
            },
            {
              "internalType": "address",
              "name": "owner",
              "type": "address"
            },
            {
              "internalType": "bytes16",
              "name": "courseId",
              "type": "bytes16"
            },
            {
              "internalType": "enum CourseMarketplaceZep.State",
              "name": "state",
              "type": "uint8"
            }
          ],
          "internalType": "struct CourseMarketplaceZep.Course[]",
          "name": "",
          "type": "tuple[]"
        }
      ],
      "stateMutability": "view",
      "type": "function",
      "constant": true
    },
    {
      "inputs": [
        {
          "internalType": "bytes32",
          "name": "courseHash",
          "type": "bytes32"
        }
      ],
      "name": "hasCourseOwnership",
      "outputs": [
        {
          "internalType": "bool",
          "name": "",
          "type": "bool"
        }
      ],
      "stateMutability": "view",
      "type": "function",
      "constant": true
    }
  ],
  "bytecode": "0x60806040523480156200001157600080fd5b5062000032620000266200005060201b60201c565b6200005860201b60201c565b600180819055506200004a336200005860201b60201c565b6200011c565b600033905090565b60008060009054906101000a900473ffffffffffffffffffffffffffffffffffffffff169050816000806101000a81548173ffffffffffffffffffffffffffffffffffffffff021916908373ffffffffffffffffffffffffffffffffffffffff1602179055508173ffffffffffffffffffffffffffffffffffffffff168173ffffffffffffffffffffffffffffffffffffffff167f8be0079c531659141344cd1fd0a4f28419497f9722a3daafe3b4186f6b6457e060405160405180910390a35050565b611dc4806200012c6000396000f3fe6080604052600436106100e85760003560e01c80637437ac5c1161008a578063c4bc5da511610059578063c4bc5da5146102af578063e82400bc146102c6578063f2fde38b14610303578063fc0e74d11461032c576100e8565b80637437ac5c146101df5780638da5cb5b1461021c578063b4f7665b14610247578063bf69da1014610272576100e8565b80633b17eadc116100c65780633b17eadc146101495780633f683b6a146101605780635c8062ba1461018b578063715018a6146101c8576100e8565b806312253a6c146100ed5780632e1a7d4d146101045780633a102ec81461012d575b600080fd5b3480156100f957600080fd5b50610102610343565b005b34801561011057600080fd5b5061012b6004803603810190610126919061149e565b6103ab565b005b61014760048036038101906101429190611426565b610512565b005b34801561015557600080fd5b5061015e6108e5565b005b34801561016c57600080fd5b50610175610a51565b60405161018291906118a6565b60405180910390f35b34801561019757600080fd5b506101b260048036038101906101ad9190611475565b610a64565b6040516101bf9190611884565b60405180910390f35b3480156101d457600080fd5b506101dd610d09565b005b3480156101eb57600080fd5b5061020660048036038101906102019190611475565b610d1d565b60405161021391906119bc565b60405180910390f35b34801561022857600080fd5b50610231610e82565b60405161023e9190611869565b60405180910390f35b34801561025357600080fd5b5061025c610eab565b60405161026991906119d7565b60405180910390f35b34801561027e57600080fd5b5061029960048036038101906102949190611475565b610eb1565b6040516102a691906118a6565b60405180910390f35b3480156102bb57600080fd5b506102c4610f1f565b005b3480156102d257600080fd5b506102ed60048036038101906102e8919061149e565b610f87565b6040516102fa91906118c1565b60405180910390f35b34801561030f57600080fd5b5061032a600480360381019061032591906113fd565b610fa4565b005b34801561033857600080fd5b50610341611028565b005b61034b61116c565b6001600760006101000a81548160ff0219169083151502179055503373ffffffffffffffffffffffffffffffffffffffff167f84d218c5b5ff8fb33b9a145363ff03d00107c73fa0345a7998462fa44f202f8760405160405180910390a2565b6103b361116c565b6103bb6111ea565b478111156103fe576040517f08c379a00000000000000000000000000000000000000000000000000000000081526004016103f59061191c565b60405180910390fd5b6000610408610e82565b73ffffffffffffffffffffffffffffffffffffffff168260405161042b90611854565b60006040518083038185875af1925050503d8060008114610468576040519150601f19603f3d011682016040523d82523d6000602084013e61046d565b606091505b50509050806104b1576040517f08c379a00000000000000000000000000000000000000000000000000000000081526004016104a8906118fc565b60405180910390fd5b6104b9610e82565b73ffffffffffffffffffffffffffffffffffffffff167f884edad9ce6fa2440d8a54cc123490eb96d2768479d49ff9c7366125a9424364836040516104fe91906119d7565b60405180910390a25061050f61123a565b50565b600760009054906101000a900460ff1615610562576040517f08c379a00000000000000000000000000000000000000000000000000000000081526004016105599061197c565b60405180910390fd5b600083823360405160200161057993929190611817565b6040516020818303038152906040528051906020012090503373ffffffffffffffffffffffffffffffffffffffff166003600083815260200190815260200160002060030160009054906101000a900473ffffffffffffffffffffffffffffffffffffffff1673ffffffffffffffffffffffffffffffffffffffff16141561062d576040517f49860b6b00000000000000000000000000000000000000000000000000000000815260040160405180910390fd5b60006002600081548092919061064290611aea565b9190505590508160046000838152602001908152602001600020819055506040518060c001604052808281526020013481526020018581526020013373ffffffffffffffffffffffffffffffffffffffff168152602001866fffffffffffffffffffffffffffffffff19168152602001600060028111156106ec577f4e487b7100000000000000000000000000000000000000000000000000000000600052602160045260246000fd5b8152506003600084815260200190815260200160002060008201518160000155602082015181600101556040820151816002015560608201518160030160006101000a81548173ffffffffffffffffffffffffffffffffffffffff021916908373ffffffffffffffffffffffffffffffffffffffff16021790555060808201518160040160006101000a8154816fffffffffffffffffffffffffffffffff021916908360801c021790555060a08201518160040160106101000a81548160ff021916908360028111156107e8577f4e487b7100000000000000000000000000000000000000000000000000000000600052602160045260246000fd5b0217905550905050600560008481526020019081526020016000208290806001815401808255809150506001900390600052602060002001600090919091909150556006600084815260200190815260200160002060009054906101000a900460ff1661087c5760016006600085815260200190815260200160002060006101000a81548160ff0219169083151502179055505b846fffffffffffffffffffffffffffffffff19163373ffffffffffffffffffffffffffffffffffffffff167f593d2b70f7c58f300ef15088b5d81e9b11183ad1263042e0d1d716efbc6f1b6d346040516108d691906119d7565b60405180910390a35050505050565b6108ed61116c565b6108f56111ea565b60004790506000811161093d576040517f08c379a00000000000000000000000000000000000000000000000000000000081526004016109349061195c565b60405180910390fd5b6000610947610e82565b73ffffffffffffffffffffffffffffffffffffffff168260405161096a90611854565b60006040518083038185875af1925050503d80600081146109a7576040519150601f19603f3d011682016040523d82523d6000602084013e6109ac565b606091505b50509050806109f0576040517f08c379a00000000000000000000000000000000000000000000000000000000081526004016109e7906118fc565b60405180910390fd5b6109f8610e82565b73ffffffffffffffffffffffffffffffffffffffff167f884edad9ce6fa2440d8a54cc123490eb96d2768479d49ff9c7366125a942436483604051610a3d91906119d7565b60405180910390a25050610a4f61123a565b565b600760009054906101000a900460ff1681565b606060006005600084815260200190815260200160002090506000818054905067ffffffffffffffff811115610ac3577f4e487b7100000000000000000000000000000000000000000000000000000000600052604160045260246000fd5b604051908082528060200260200182016040528015610afc57816020015b610ae961130f565b815260200190600190039081610ae15790505b50905060005b8280549050811015610cfe5760036000848381548110610b4b577f4e487b7100000000000000000000000000000000000000000000000000000000600052603260045260246000fd5b906000526020600020015481526020019081526020016000206040518060c00160405290816000820154815260200160018201548152602001600282015481526020016003820160009054906101000a900473ffffffffffffffffffffffffffffffffffffffff1673ffffffffffffffffffffffffffffffffffffffff1673ffffffffffffffffffffffffffffffffffffffff1681526020016004820160009054906101000a900460801b6fffffffffffffffffffffffffffffffff19166fffffffffffffffffffffffffffffffff191681526020016004820160109054906101000a900460ff166002811115610c6b577f4e487b7100000000000000000000000000000000000000000000000000000000600052602160045260246000fd5b6002811115610ca3577f4e487b7100000000000000000000000000000000000000000000000000000000600052602160045260246000fd5b81525050828281518110610ce0577f4e487b7100000000000000000000000000000000000000000000000000000000600052603260045260246000fd5b60200260200101819052508080610cf690611aea565b915050610b02565b508092505050919050565b610d1161116c565b610d1b6000611243565b565b610d2561130f565b600360008381526020019081526020016000206040518060c00160405290816000820154815260200160018201548152602001600282015481526020016003820160009054906101000a900473ffffffffffffffffffffffffffffffffffffffff1673ffffffffffffffffffffffffffffffffffffffff1673ffffffffffffffffffffffffffffffffffffffff1681526020016004820160009054906101000a900460801b6fffffffffffffffffffffffffffffffff19166fffffffffffffffffffffffffffffffff191681526020016004820160109054906101000a900460ff166002811115610e3f577f4e487b7100000000000000000000000000000000000000000000000000000000600052602160045260246000fd5b6002811115610e77577f4e487b7100000000000000000000000000000000000000000000000000000000600052602160045260246000fd5b815250509050919050565b60008060009054906101000a900473ffffffffffffffffffffffffffffffffffffffff16905090565b60025481565b60003373ffffffffffffffffffffffffffffffffffffffff166003600084815260200190815260200160002060030160009054906101000a900473ffffffffffffffffffffffffffffffffffffffff1673ffffffffffffffffffffffffffffffffffffffff16149050919050565b610f2761116c565b6000600760006101000a81548160ff0219169083151502179055503373ffffffffffffffffffffffffffffffffffffffff167f472e056847699a88a64a275bcc75c153a7f8bb3f37c8b1390d6abd2426d5c4ba60405160405180910390a2565b600060046000838152602001908152602001600020549050919050565b610fac61116c565b600073ffffffffffffffffffffffffffffffffffffffff168173ffffffffffffffffffffffffffffffffffffffff16141561101c576040517f08c379a0000000000000000000000000000000000000000000000000000000008152600401611013906118dc565b60405180910390fd5b61102581611243565b50565b61103061116c565b6110386111ea565b6001600760006101000a81548160ff02191690831515021790555060004790506000611062610e82565b73ffffffffffffffffffffffffffffffffffffffff168260405161108590611854565b60006040518083038185875af1925050503d80600081146110c2576040519150601f19603f3d011682016040523d82523d6000602084013e6110c7565b606091505b505090508061110b576040517f08c379a0000000000000000000000000000000000000000000000000000000008152600401611102906118fc565b60405180910390fd5b611113610e82565b73ffffffffffffffffffffffffffffffffffffffff167f70b378e829f4753067ca2bb8e0d9a22556271980ac8c867d2f1a6d5855792d558360405161115891906119d7565b60405180910390a2505061116a61123a565b565b611174611307565b73ffffffffffffffffffffffffffffffffffffffff16611192610e82565b73ffffffffffffffffffffffffffffffffffffffff16146111e8576040517f08c379a00000000000000000000000000000000000000000000000000000000081526004016111df9061193c565b60405180910390fd5b565b60026001541415611230576040517f08c379a00000000000000000000000000000000000000000000000000000000081526004016112279061199c565b60405180910390fd5b6002600181905550565b60018081905550565b60008060009054906101000a900473ffffffffffffffffffffffffffffffffffffffff169050816000806101000a81548173ffffffffffffffffffffffffffffffffffffffff021916908373ffffffffffffffffffffffffffffffffffffffff1602179055508173ffffffffffffffffffffffffffffffffffffffff168173ffffffffffffffffffffffffffffffffffffffff167f8be0079c531659141344cd1fd0a4f28419497f9722a3daafe3b4186f6b6457e060405160405180910390a35050565b600033905090565b6040518060c00160405280600081526020016000815260200160008019168152602001600073ffffffffffffffffffffffffffffffffffffffff16815260200160006fffffffffffffffffffffffffffffffff19168152602001600060028111156113a3577f4e487b7100000000000000000000000000000000000000000000000000000000600052602160045260246000fd5b81525090565b6000813590506113b881611d32565b92915050565b6000813590506113cd81611d49565b92915050565b6000813590506113e281611d60565b92915050565b6000813590506113f781611d77565b92915050565b60006020828403121561140f57600080fd5b600061141d848285016113a9565b91505092915050565b60008060006060848603121561143b57600080fd5b6000611449868287016113be565b935050602061145a868287016113d3565b925050604061146b868287016113d3565b9150509250925092565b60006020828403121561148757600080fd5b6000611495848285016113d3565b91505092915050565b6000602082840312156114b057600080fd5b60006114be848285016113e8565b91505092915050565b60006114d38383611703565b60c08301905092915050565b6114e881611a47565b82525050565b6114f781611a47565b82525050565b61150e61150982611a47565b611b33565b82525050565b600061151f82611a02565b6115298185611a1a565b9350611534836119f2565b8060005b8381101561156557815161154c88826114c7565b975061155783611a0d565b925050600181019050611538565b5085935050505092915050565b61157b81611a59565b82525050565b61158a81611a65565b82525050565b6115a161159c82611a65565b611b45565b82525050565b6115b081611a91565b82525050565b6115bf81611a91565b82525050565b6115d66115d182611a91565b611b4f565b82525050565b6115e581611ad8565b82525050565b60006115f8602683611a36565b915061160382611bd6565b604082019050919050565b600061161b600f83611a36565b915061162682611c25565b602082019050919050565b600061163e601483611a36565b915061164982611c4e565b602082019050919050565b6000611661602083611a36565b915061166c82611c77565b602082019050919050565b6000611684601683611a36565b915061168f82611ca0565b602082019050919050565b60006116a7601383611a36565b91506116b282611cc9565b602082019050919050565b60006116ca600083611a2b565b91506116d582611cf2565b600082019050919050565b60006116ed601f83611a36565b91506116f882611cf5565b602082019050919050565b60c08201600082015161171960008501826117f9565b50602082015161172c60208501826117f9565b50604082015161173f60408501826115a7565b50606082015161175260608501826114df565b5060808201516117656080850182611581565b5060a082015161177860a08501826115dc565b50505050565b60c08201600082015161179460008501826117f9565b5060208201516117a760208501826117f9565b5060408201516117ba60408501826115a7565b5060608201516117cd60608501826114df565b5060808201516117e06080850182611581565b5060a08201516117f360a08501826115dc565b50505050565b61180281611ace565b82525050565b61181181611ace565b82525050565b60006118238286611590565b60108201915061183382856115c5565b60208201915061184382846114fd565b601482019150819050949350505050565b600061185f826116bd565b9150819050919050565b600060208201905061187e60008301846114ee565b92915050565b6000602082019050818103600083015261189e8184611514565b905092915050565b60006020820190506118bb6000830184611572565b92915050565b60006020820190506118d660008301846115b6565b92915050565b600060208201905081810360008301526118f5816115eb565b9050919050565b600060208201905081810360008301526119158161160e565b9050919050565b6000602082019050818103600083015261193581611631565b9050919050565b6000602082019050818103600083015261195581611654565b9050919050565b6000602082019050818103600083015261197581611677565b9050919050565b600060208201905081810360008301526119958161169a565b9050919050565b600060208201905081810360008301526119b5816116e0565b9050919050565b600060c0820190506119d1600083018461177e565b92915050565b60006020820190506119ec6000830184611808565b92915050565b6000819050602082019050919050565b600081519050919050565b6000602082019050919050565b600082825260208201905092915050565b600081905092915050565b600082825260208201905092915050565b6000611a5282611aae565b9050919050565b60008115159050919050565b60007fffffffffffffffffffffffffffffffff0000000000000000000000000000000082169050919050565b6000819050919050565b6000819050611aa982611d1e565b919050565b600073ffffffffffffffffffffffffffffffffffffffff82169050919050565b6000819050919050565b6000611ae382611a9b565b9050919050565b6000611af582611ace565b91507fffffffffffffffffffffffffffffffffffffffffffffffffffffffffffffffff821415611b2857611b27611b6b565b5b600182019050919050565b6000611b3e82611b59565b9050919050565b6000819050919050565b6000819050919050565b6000611b6482611bc9565b9050919050565b7f4e487b7100000000000000000000000000000000000000000000000000000000600052601160045260246000fd5b7f4e487b7100000000000000000000000000000000000000000000000000000000600052602160045260246000fd5b60008160601b9050919050565b7f4f776e61626c653a206e6577206f776e657220697320746865207a65726f206160008201527f6464726573730000000000000000000000000000000000000000000000000000602082015250565b7f5472616e73666572206661696c65640000000000000000000000000000000000600082015250565b7f496e73756666696369656e742062616c616e6365000000000000000000000000600082015250565b7f4f776e61626c653a2063616c6c6572206973206e6f7420746865206f776e6572600082015250565b7f4e6f2062616c616e636520746f20776974686472617700000000000000000000600082015250565b7f436f6e74726163742069732073746f7070656400000000000000000000000000600082015250565b50565b7f5265656e7472616e637947756172643a207265656e7472616e742063616c6c00600082015250565b60038110611d2f57611d2e611b9a565b5b50565b611d3b81611a47565b8114611d4657600080fd5b50565b611d5281611a65565b8114611d5d57600080fd5b50565b611d6981611a91565b8114611d7457600080fd5b50565b611d8081611ace565b8114611d8b57600080fd5b5056fea26469706673582212201f8a64adfbf615e2e918fcb91da47c3880c6595dac7dfc0703efc4fb8603907364736f6c63430008040033",
  "immutableReferences": {},
  "source": "// SPDX-License-Identifier: MIT\r\npragma solidity >=0.4.22 <0.9.0;\r\n\r\nimport \"@openzeppelin/contracts/access/Ownable.sol\";\r\nimport \"@openzeppelin/contracts/security/ReentrancyGuard.sol\";\r\n\r\ncontract CourseMarketplaceZep is Ownable, ReentrancyGuard {\r\n\r\n    enum State { Purchased, Activated, Deactivated }\r\n\r\n    struct Course {\r\n        uint id;\r\n        uint price;\r\n        bytes32 proof;\r\n        address owner;\r\n        bytes16 courseId;\r\n        State state;\r\n    }\r\n\r\n    uint public totalOwnedCourses;\r\n    mapping(bytes32 => Course) private ownedCourses; // courseHash -> Course\r\n    mapping(uint => bytes32) private ownedCourseHash; // id -> courseHash\r\n    mapping(bytes32 => bytes32[]) private emailToCourses; // emailHash -> array of courseHashes\r\n    mapping(bytes32 => bool) private emailExists; // tracks unique emails\r\n\r\n    bool public isStopped;\r\n\r\n    // EVENTS\r\n    event CoursePurchased(address indexed buyer, bytes16 indexed courseId, uint price);\r\n    event ContractStopped(address indexed by);\r\n    event ContractResumed(address indexed by);\r\n    event Withdraw(address indexed to, uint amount);\r\n    event Shutdown(address indexed owner, uint amount);\r\n\r\n    modifier contractActive() {\r\n        require(!isStopped, \"Contract is stopped\");\r\n        _;\r\n    }\r\n\r\n    error HasOwnership();\r\n\r\n    constructor() {\r\n        _transferOwnership(msg.sender);\r\n    }\r\n\r\n    // =========================\r\n    // CONTRACT CONTROL\r\n    // =========================\r\n    function stopContract() external onlyOwner {\r\n        isStopped = true;\r\n        emit ContractStopped(msg.sender);\r\n    }\r\n\r\n    function resumeContract() external onlyOwner {\r\n        isStopped = false;\r\n        emit ContractResumed(msg.sender);\r\n    }\r\n\r\n    // =========================\r\n    // COURSE PURCHASE\r\n    // =========================\r\n    function purchaseCourse(bytes16 courseId, bytes32 proof, bytes32 emailHash)\r\n        external\r\n        payable\r\n        contractActive\r\n    {\r\n        bytes32 courseHash = keccak256(abi.encodePacked(courseId, emailHash, msg.sender));\r\n\r\n        if (ownedCourses[courseHash].owner == msg.sender) {\r\n            revert HasOwnership();\r\n        }\r\n\r\n        uint id = totalOwnedCourses++;\r\n        ownedCourseHash[id] = courseHash;\r\n\r\n        ownedCourses[courseHash] = Course({\r\n            id: id,\r\n            price: msg.value,\r\n            proof: proof,\r\n            owner: msg.sender,\r\n            courseId: courseId,\r\n            state: State.Purchased\r\n        });\r\n\r\n        emailToCourses[emailHash].push(courseHash);\r\n\r\n        // track unique emails\r\n        if (!emailExists[emailHash]) {\r\n            emailExists[emailHash] = true;\r\n        }\r\n\r\n        emit CoursePurchased(msg.sender, courseId, msg.value);\r\n    }\r\n\r\n    // =========================\r\n    // WITHDRAW & SHUTDOWN\r\n    // =========================\r\n    function withdraw(uint amount) external onlyOwner nonReentrant {\r\n        require(amount <= address(this).balance, \"Insufficient balance\");\r\n        (bool success, ) = owner().call{value: amount}(\"\");\r\n        require(success, \"Transfer failed\");\r\n        emit Withdraw(owner(), amount);\r\n    }\r\n\r\n    function withdrawAllBalance() external onlyOwner nonReentrant {\r\n        uint balance = address(this).balance;\r\n        require(balance > 0, \"No balance to withdraw\");\r\n        (bool success, ) = owner().call{value: balance}(\"\");\r\n        require(success, \"Transfer failed\");\r\n        emit Withdraw(owner(), balance);\r\n    }\r\n\r\n    function shutdown() external onlyOwner nonReentrant {\r\n        isStopped = true;\r\n        uint balance = address(this).balance;\r\n        (bool success, ) = owner().call{value: balance}(\"\");\r\n        require(success, \"Transfer failed\");\r\n        emit Shutdown(owner(), balance);\r\n    }\r\n\r\n    // =========================\r\n    // DATA RETRIEVAL\r\n    // =========================\r\n    function getOwnedCourseHash(uint index) external view returns(bytes32) {\r\n        return ownedCourseHash[index];\r\n    }\r\n\r\n    function getOwnedCourse(bytes32 hash) external view returns(Course memory) {\r\n        return ownedCourses[hash];\r\n    }\r\n\r\n    function getCoursesByEmail(bytes32 emailHash) external view returns(Course[] memory) {\r\n        bytes32[] storage hashes = emailToCourses[emailHash];\r\n        Course[] memory courses = new Course[](hashes.length);\r\n\r\n        for (uint i = 0; i < hashes.length; i++) {\r\n            courses[i] = ownedCourses[hashes[i]];\r\n        }\r\n\r\n        return courses;\r\n    }\r\n\r\n    function hasCourseOwnership(bytes32 courseHash) external view returns(bool) {\r\n        return ownedCourses[courseHash].owner == msg.sender;\r\n    }\r\n}",
  "sourcePath": "C:\\tests projects\\Eth\\marketplace-eth\\contracts\\CourseMarketplace_2.sol",
  "compiler": {
    "name": "solc",
    "version": "0.8.4+commit.c7e474f2.Emscripten.clang"
  },
  "schemaVersion": "3.4.16",
  "updatedAt": "2026-03-02T16:26:03.305Z",
  "networkType": "ethereum",
  "devdoc": {
    "kind": "dev",
    "methods": {
      "owner()": {
        "details": "Returns the address of the current owner."
      },
      "renounceOwnership()": {
        "details": "Leaves the contract without owner. It will not be possible to call `onlyOwner` functions. Can only be called by the current owner. NOTE: Renouncing ownership will leave the contract without an owner, thereby disabling any functionality that is only available to the owner."
      },
      "transferOwnership(address)": {
        "details": "Transfers ownership of the contract to a new account (`newOwner`). Can only be called by the current owner."
      }
    },
    "version": 1
  },
  "userdoc": {
    "kind": "user",
    "methods": {},
    "version": 1
  }
}