{
  "contractName": "CourseMarketplace",
  "abi": [
    {
      "inputs": [],
      "stateMutability": "nonpayable",
      "type": "constructor"
    },
    {
      "inputs": [],
      "name": "hasOwnership",
      "type": "error"
    },
    {
      "inputs": [],
      "name": "owner",
      "outputs": [
        {
          "internalType": "address payable",
          "name": "",
          "type": "address"
        }
      ],
      "stateMutability": "view",
      "type": "function",
      "constant": true
    },
    {
      "inputs": [],
      "name": "totalOwnedCourses",
      "outputs": [
        {
          "internalType": "uint256",
          "name": "",
          "type": "uint256"
        }
      ],
      "stateMutability": "view",
      "type": "function",
      "constant": true
    },
    {
      "inputs": [
        {
          "internalType": "bytes16",
          "name": "courseId",
          "type": "bytes16"
        },
        {
          "internalType": "bytes32",
          "name": "proof",
          "type": "bytes32"
        }
      ],
      "name": "purchaseCourse",
      "outputs": [],
      "stateMutability": "payable",
      "type": "function",
      "payable": true
    },
    {
      "inputs": [
        {
          "internalType": "uint256",
          "name": "index",
          "type": "uint256"
        }
      ],
      "name": "getOwnedCourseHash",
      "outputs": [
        {
          "internalType": "bytes32",
          "name": "",
          "type": "bytes32"
        }
      ],
      "stateMutability": "view",
      "type": "function",
      "constant": true
    },
    {
      "inputs": [
        {
          "internalType": "bytes32",
          "name": "hash",
          "type": "bytes32"
        }
      ],
      "name": "getOwnedCourse",
      "outputs": [
        {
          "components": [
            {
              "internalType": "uint256",
              "name": "id",
              "type": "uint256"
            },
            {
              "internalType": "uint256",
              "name": "price",
              "type": "uint256"
            },
            {
              "internalType": "bytes32",
              "name": "proof",
              "type": "bytes32"
            },
            {
              "internalType": "address",
              "name": "owner",
              "type": "address"
            },
            {
              "internalType": "enum CourseMarketplace.State",
              "name": "state",
              "type": "uint8"
            }
          ],
          "internalType": "struct CourseMarketplace.Course",
          "name": "",
          "type": "tuple"
        }
      ],
      "stateMutability": "view",
      "type": "function",
      "constant": true
    },
    {
      "inputs": [
        {
          "internalType": "address",
          "name": "newOwner",
          "type": "address"
        }
      ],
      "name": "setContractOwner",
      "outputs": [],
      "stateMutability": "nonpayable",
      "type": "function"
    }
  ],
  "bytecode": "0x608060405234801561001057600080fd5b5033600360006101000a81548173ffffffffffffffffffffffffffffffffffffffff021916908373ffffffffffffffffffffffffffffffffffffffff160217905550610cdd806100616000396000f3fe6080604052600436106100555760003560e01c80637437ac5c1461005a5780638da5cb5b14610097578063a34d42b8146100c2578063b4f7665b146100eb578063d76821cb14610116578063e82400bc14610132575b600080fd5b34801561006657600080fd5b50610081600480360381019061007c91906107da565b61016f565b60405161008e9190610a13565b60405180910390f35b3480156100a357600080fd5b506100ac610297565b6040516100b9919061099d565b60405180910390f35b3480156100ce57600080fd5b506100e960048036038101906100e49190610775565b6102bd565b005b3480156100f757600080fd5b50610100610424565b60405161010d9190610a2e565b60405180910390f35b610130600480360381019061012b919061079e565b61042a565b005b34801561013e57600080fd5b5061015960048036038101906101549190610803565b610616565b60405161016691906109b8565b60405180910390f35b6101776106a1565b600160008381526020019081526020016000206040518060a00160405290816000820154815260200160018201548152602001600282015481526020016003820160009054906101000a900473ffffffffffffffffffffffffffffffffffffffff1673ffffffffffffffffffffffffffffffffffffffff1673ffffffffffffffffffffffffffffffffffffffff1681526020016003820160149054906101000a900460ff166002811115610254577f4e487b7100000000000000000000000000000000000000000000000000000000600052602160045260246000fd5b600281111561028c577f4e487b7100000000000000000000000000000000000000000000000000000000600052602160045260246000fd5b815250509050919050565b600360009054906101000a900473ffffffffffffffffffffffffffffffffffffffff1681565b80600360009054906101000a900473ffffffffffffffffffffffffffffffffffffffff1673ffffffffffffffffffffffffffffffffffffffff163373ffffffffffffffffffffffffffffffffffffffff161461034e576040517f08c379a0000000000000000000000000000000000000000000000000000000008152600401610345906109d3565b60405180910390fd5b8073ffffffffffffffffffffffffffffffffffffffff16600360009054906101000a900473ffffffffffffffffffffffffffffffffffffffff1673ffffffffffffffffffffffffffffffffffffffff1614156103df576040517f08c379a00000000000000000000000000000000000000000000000000000000081526004016103d6906109f3565b60405180910390fd5b81600360006101000a81548173ffffffffffffffffffffffffffffffffffffffff021916908373ffffffffffffffffffffffffffffffffffffffff1602179055505050565b60005481565b6000823360405160200161043f929190610971565b60405160208183030381529060405280519060200120905061046081610633565b15610497576040517f95076d8b00000000000000000000000000000000000000000000000000000000815260040160405180910390fd5b60008060008154809291906104ab90610b03565b9190505590508160026000838152602001908152602001600020819055506040518060a001604052808281526020013481526020018481526020013373ffffffffffffffffffffffffffffffffffffffff1681526020016000600281111561053c577f4e487b7100000000000000000000000000000000000000000000000000000000600052602160045260246000fd5b8152506001600084815260200190815260200160002060008201518160000155602082015181600101556040820151816002015560608201518160030160006101000a81548173ffffffffffffffffffffffffffffffffffffffff021916908373ffffffffffffffffffffffffffffffffffffffff16021790555060808201518160030160146101000a81548160ff02191690836002811115610608577f4e487b7100000000000000000000000000000000000000000000000000000000600052602160045260246000fd5b021790555090505050505050565b600060026000838152602001908152602001600020549050919050565b60003373ffffffffffffffffffffffffffffffffffffffff166001600084815260200190815260200160002060030160009054906101000a900473ffffffffffffffffffffffffffffffffffffffff1673ffffffffffffffffffffffffffffffffffffffff16149050919050565b6040518060a00160405280600081526020016000815260200160008019168152602001600073ffffffffffffffffffffffffffffffffffffffff1681526020016000600281111561071b577f4e487b7100000000000000000000000000000000000000000000000000000000600052602160045260246000fd5b81525090565b60008135905061073081610c4b565b92915050565b60008135905061074581610c62565b92915050565b60008135905061075a81610c79565b92915050565b60008135905061076f81610c90565b92915050565b60006020828403121561078757600080fd5b600061079584828501610721565b91505092915050565b600080604083850312156107b157600080fd5b60006107bf85828601610736565b92505060206107d08582860161074b565b9150509250929050565b6000602082840312156107ec57600080fd5b60006107fa8482850161074b565b91505092915050565b60006020828403121561081557600080fd5b600061082384828501610760565b91505092915050565b61083581610a6c565b82525050565b61084481610a5a565b82525050565b61085b61085682610a5a565b610b4c565b82525050565b61087261086d82610a7e565b610b5e565b82525050565b61088181610aaa565b82525050565b61089081610aaa565b82525050565b61089f81610af1565b82525050565b60006108b2601483610a49565b91506108bd82610be5565b602082019050919050565b60006108d5600c83610a49565b91506108e082610c0e565b602082019050919050565b60a0820160008201516109016000850182610953565b5060208201516109146020850182610953565b5060408201516109276040850182610878565b50606082015161093a606085018261083b565b50608082015161094d6080850182610896565b50505050565b61095c81610ae7565b82525050565b61096b81610ae7565b82525050565b600061097d8285610861565b60108201915061098d828461084a565b6014820191508190509392505050565b60006020820190506109b2600083018461082c565b92915050565b60006020820190506109cd6000830184610887565b92915050565b600060208201905081810360008301526109ec816108a5565b9050919050565b60006020820190508181036000830152610a0c816108c8565b9050919050565b600060a082019050610a2860008301846108eb565b92915050565b6000602082019050610a436000830184610962565b92915050565b600082825260208201905092915050565b6000610a6582610ac7565b9050919050565b6000610a7782610ac7565b9050919050565b60007fffffffffffffffffffffffffffffffff0000000000000000000000000000000082169050919050565b6000819050919050565b6000819050610ac282610c37565b919050565b600073ffffffffffffffffffffffffffffffffffffffff82169050919050565b6000819050919050565b6000610afc82610ab4565b9050919050565b6000610b0e82610ae7565b91507fffffffffffffffffffffffffffffffffffffffffffffffffffffffffffffffff821415610b4157610b40610b7a565b5b600182019050919050565b6000610b5782610b68565b9050919050565b6000819050919050565b6000610b7382610bd8565b9050919050565b7f4e487b7100000000000000000000000000000000000000000000000000000000600052601160045260246000fd5b7f4e487b7100000000000000000000000000000000000000000000000000000000600052602160045260246000fd5b60008160601b9050919050565b7f4f6e6c79206d616e6167657220616c6c6f776564000000000000000000000000600082015250565b7f53616d6520616464726573730000000000000000000000000000000000000000600082015250565b60038110610c4857610c47610ba9565b5b50565b610c5481610a5a565b8114610c5f57600080fd5b50565b610c6b81610a7e565b8114610c7657600080fd5b50565b610c8281610aaa565b8114610c8d57600080fd5b50565b610c9981610ae7565b8114610ca457600080fd5b5056fea264697066735822122006d3df3964e797a3c36cb15c6046f600a1333f7d9d60053a3bd5b6fa86afbe3e64736f6c63430008040033",
  "immutableReferences": {},
  "source": "// SPDX-License-Identifier: MIT\npragma solidity >=0.4.22 <0.9.0;\n\ncontract CourseMarketplace {\n\n  enum State {\n    Purchased,\n    Activated,\n    Deactivated\n  }\n\n  struct Course {\n    uint id; // 32\n    uint price; // 32\n    bytes32 proof; // 32\n    address owner; // 20\n    State state; // 1\n  }\n\n  // number of all courses + id of the course\n  uint public totalOwnedCourses;\n\n  // mapping of courseHash to Course data\n  mapping(bytes32 => Course) private ownedCourses;\n\n  // mapping of courseID to courseHash\n  mapping(uint => bytes32) private ownedCourseHash;\n\n  address payable public owner;\n\n  /// The course has been purchased\n  error hasOwnership();\n\n  modifier restricted(address newOwner) {\n        require(msg.sender == owner, \"Only manager allowed\");\n        require(owner != newOwner, \"Same address\");\n        _;\n    }\n\n  constructor(){\n    owner = payable(msg.sender);\n  }\n\n  function purchaseCourse(\n    bytes16 courseId, // 0x00000000000000000000000000003130\n    bytes32 proof // 0x0000000000000000000000000000313000000000000000000000000000003130\n  )\n    external\n    payable\n  {\n\n    bytes32 courseHash = keccak256(abi.encodePacked(courseId, msg.sender));\n\n    if(hasCourseOwnership(courseHash)){\n        revert hasOwnership();\n    } \n\n\n    uint id = totalOwnedCourses++;\n\n    ownedCourseHash[id] = courseHash;\n    ownedCourses[courseHash] = Course({\n      id: id,\n      price: msg.value,\n      proof: proof,\n      owner: msg.sender,\n      state: State.Purchased\n    });\n  }\n\n  function getOwnedCourseHash(uint index) external view returns(bytes32){\n    return ownedCourseHash[index];\n  }\n\n  function getOwnedCourse(bytes32 hash) external view returns(Course memory){\n    return ownedCourses[hash];\n  }\n\n  function hasCourseOwnership(bytes32 hash) internal view returns(bool){\n    return(ownedCourses[hash].owner == msg.sender);\n    }  \n\n    function setContractOwner(address newOwner) external restricted(newOwner){\n       \n        owner = payable(newOwner);\n    } \n}",
  "sourcePath": "/Users/benoit/Documents/programming/Eth/marketplace-eth/contracts/CourseMarketplace.sol",
  "compiler": {
    "name": "solc",
    "version": "0.8.4+commit.c7e474f2.Emscripten.clang"
  },
  "schemaVersion": "3.4.16",
  "updatedAt": "2026-02-07T20:05:38.180Z",
  "networkType": "ethereum",
  "devdoc": {
    "kind": "dev",
    "methods": {},
    "version": 1
  },
  "userdoc": {
    "errors": {
      "hasOwnership()": [
        {
          "notice": "The course has been purchased"
        }
      ]
    },
    "kind": "user",
    "methods": {},
    "version": 1
  }
}