{
  "contractName": "CourseMarketplace",
  "abi": [
    {
      "inputs": [],
      "stateMutability": "nonpayable",
      "type": "constructor"
    },
    {
      "inputs": [],
      "name": "hasOwnership",
      "type": "error"
    },
    {
      "inputs": [],
      "name": "isStopped",
      "outputs": [
        {
          "internalType": "bool",
          "name": "",
          "type": "bool"
        }
      ],
      "stateMutability": "view",
      "type": "function",
      "constant": true
    },
    {
      "inputs": [],
      "name": "owner",
      "outputs": [
        {
          "internalType": "address payable",
          "name": "",
          "type": "address"
        }
      ],
      "stateMutability": "view",
      "type": "function",
      "constant": true
    },
    {
      "inputs": [],
      "name": "totalOwnedCourses",
      "outputs": [
        {
          "internalType": "uint256",
          "name": "",
          "type": "uint256"
        }
      ],
      "stateMutability": "view",
      "type": "function",
      "constant": true
    },
    {
      "stateMutability": "payable",
      "type": "receive",
      "payable": true
    },
    {
      "inputs": [],
      "name": "stopContract",
      "outputs": [],
      "stateMutability": "nonpayable",
      "type": "function"
    },
    {
      "inputs": [],
      "name": "resumeContract",
      "outputs": [],
      "stateMutability": "nonpayable",
      "type": "function"
    },
    {
      "inputs": [
        {
          "internalType": "bytes16",
          "name": "courseId",
          "type": "bytes16"
        },
        {
          "internalType": "bytes32",
          "name": "proof",
          "type": "bytes32"
        },
        {
          "internalType": "bytes32",
          "name": "emailHash",
          "type": "bytes32"
        }
      ],
      "name": "purchaseCourse",
      "outputs": [],
      "stateMutability": "payable",
      "type": "function",
      "payable": true
    },
    {
      "inputs": [],
      "name": "shutdown",
      "outputs": [],
      "stateMutability": "nonpayable",
      "type": "function"
    },
    {
      "inputs": [
        {
          "internalType": "uint256",
          "name": "amount",
          "type": "uint256"
        }
      ],
      "name": "withdraw",
      "outputs": [],
      "stateMutability": "nonpayable",
      "type": "function"
    },
    {
      "inputs": [],
      "name": "withdrawAllBalance",
      "outputs": [],
      "stateMutability": "nonpayable",
      "type": "function"
    },
    {
      "inputs": [
        {
          "internalType": "uint256",
          "name": "index",
          "type": "uint256"
        }
      ],
      "name": "getOwnedCourseHash",
      "outputs": [
        {
          "internalType": "bytes32",
          "name": "",
          "type": "bytes32"
        }
      ],
      "stateMutability": "view",
      "type": "function",
      "constant": true
    },
    {
      "inputs": [
        {
          "internalType": "bytes32",
          "name": "hash",
          "type": "bytes32"
        }
      ],
      "name": "getOwnedCourse",
      "outputs": [
        {
          "components": [
            {
              "internalType": "uint256",
              "name": "id",
              "type": "uint256"
            },
            {
              "internalType": "uint256",
              "name": "price",
              "type": "uint256"
            },
            {
              "internalType": "bytes32",
              "name": "proof",
              "type": "bytes32"
            },
            {
              "internalType": "address",
              "name": "owner",
              "type": "address"
            },
            {
              "internalType": "bytes16",
              "name": "courseId",
              "type": "bytes16"
            }
          ],
          "internalType": "struct CourseMarketplace.Course",
          "name": "",
          "type": "tuple"
        }
      ],
      "stateMutability": "view",
      "type": "function",
      "constant": true
    },
    {
      "inputs": [
        {
          "internalType": "address",
          "name": "newOwner",
          "type": "address"
        }
      ],
      "name": "setContractOwner",
      "outputs": [],
      "stateMutability": "nonpayable",
      "type": "function"
    },
    {
      "inputs": [
        {
          "internalType": "bytes32",
          "name": "emailHash",
          "type": "bytes32"
        }
      ],
      "name": "getCoursesByEmail",
      "outputs": [
        {
          "components": [
            {
              "internalType": "uint256",
              "name": "id",
              "type": "uint256"
            },
            {
              "internalType": "uint256",
              "name": "price",
              "type": "uint256"
            },
            {
              "internalType": "bytes32",
              "name": "proof",
              "type": "bytes32"
            },
            {
              "internalType": "address",
              "name": "owner",
              "type": "address"
            },
            {
              "internalType": "bytes16",
              "name": "courseId",
              "type": "bytes16"
            }
          ],
          "internalType": "struct CourseMarketplace.Course[]",
          "name": "",
          "type": "tuple[]"
        }
      ],
      "stateMutability": "view",
      "type": "function",
      "constant": true
    }
  ],
  "bytecode": "0x608060405234801561001057600080fd5b5033600560006101000a81548173ffffffffffffffffffffffffffffffffffffffff021916908373ffffffffffffffffffffffffffffffffffffffff160217905550611881806100616000396000f3fe6080604052600436106100c65760003560e01c80637437ac5c1161007f578063b4f7665b11610059578063b4f7665b1461023e578063c4bc5da514610269578063e82400bc14610280578063fc0e74d1146102bd576100cd565b80637437ac5c146101ad5780638da5cb5b146101ea578063a34d42b814610215576100cd565b806312253a6c146100d25780632e1a7d4d146100e95780633a102ec8146101125780633b17eadc1461012e5780633f683b6a146101455780635c8062ba14610170576100cd565b366100cd57005b600080fd5b3480156100de57600080fd5b506100e76102d4565b005b3480156100f557600080fd5b50610110600480360381019061010b9190611150565b610381565b005b61012c600480360381019061012791906110d8565b6104e3565b005b34801561013a57600080fd5b50610143610729565b005b34801561015157600080fd5b5061015a61088a565b60405161016791906114ba565b60405180910390f35b34801561017c57600080fd5b5061019760048036038101906101929190611127565b61089d565b6040516101a49190611498565b60405180910390f35b3480156101b957600080fd5b506101d460048036038101906101cf9190611127565b610adb565b6040516101e19190611570565b60405180910390f35b3480156101f657600080fd5b506101ff610bb9565b60405161020c919061147d565b60405180910390f35b34801561022157600080fd5b5061023c600480360381019061023791906110af565b610bdf565b005b34801561024a57600080fd5b50610253610d46565b604051610260919061158b565b60405180910390f35b34801561027557600080fd5b5061027e610d4c565b005b34801561028c57600080fd5b506102a760048036038101906102a29190611150565b610df9565b6040516102b491906114d5565b60405180910390f35b3480156102c957600080fd5b506102d2610e16565b005b600560009054906101000a900473ffffffffffffffffffffffffffffffffffffffff1673ffffffffffffffffffffffffffffffffffffffff163373ffffffffffffffffffffffffffffffffffffffff1614610364576040517f08c379a000000000000000000000000000000000000000000000000000000000815260040161035b906114f0565b60405180910390fd5b6001600560146101000a81548160ff021916908315150217905550565b600560009054906101000a900473ffffffffffffffffffffffffffffffffffffffff1673ffffffffffffffffffffffffffffffffffffffff163373ffffffffffffffffffffffffffffffffffffffff1614610411576040517f08c379a0000000000000000000000000000000000000000000000000000000008152600401610408906114f0565b60405180910390fd5b6000600560009054906101000a900473ffffffffffffffffffffffffffffffffffffffff1673ffffffffffffffffffffffffffffffffffffffff168260405161045990611468565b60006040518083038185875af1925050503d8060008114610496576040519150601f19603f3d011682016040523d82523d6000602084013e61049b565b606091505b50509050806104df576040517f08c379a00000000000000000000000000000000000000000000000000000000081526004016104d690611530565b60405180910390fd5b5050565b60001515600560149054906101000a900460ff1615151461050357600080fd5b600083823360405160200161051a9392919061142b565b60405160208183030381529060405280519060200120905061053b81610f92565b15610572576040517f95076d8b00000000000000000000000000000000000000000000000000000000815260040160405180910390fd5b60008060008154809291906105869061168b565b9190505590508160026000838152602001908152602001600020819055506040518060a001604052808281526020013481526020018581526020013373ffffffffffffffffffffffffffffffffffffffff168152602001866fffffffffffffffffffffffffffffffff19168152506001600084815260200190815260200160002060008201518160000155602082015181600101556040820151816002015560608201518160030160006101000a81548173ffffffffffffffffffffffffffffffffffffffff021916908373ffffffffffffffffffffffffffffffffffffffff16021790555060808201518160040160006101000a8154816fffffffffffffffffffffffffffffffff021916908360801c0217905550905050600360008481526020019081526020016000208290806001815401808255809150506001900390600052602060002001600090919091909150556001600360008581526020019081526020016000208054905014156107225760048390806001815401808255809150506001900390600052602060002001600090919091909150555b5050505050565b600560009054906101000a900473ffffffffffffffffffffffffffffffffffffffff1673ffffffffffffffffffffffffffffffffffffffff163373ffffffffffffffffffffffffffffffffffffffff16146107b9576040517f08c379a00000000000000000000000000000000000000000000000000000000081526004016107b0906114f0565b60405180910390fd5b6000600560009054906101000a900473ffffffffffffffffffffffffffffffffffffffff1673ffffffffffffffffffffffffffffffffffffffff164760405161080190611468565b60006040518083038185875af1925050503d806000811461083e576040519150601f19603f3d011682016040523d82523d6000602084013e610843565b606091505b5050905080610887576040517f08c379a000000000000000000000000000000000000000000000000000000000815260040161087e90611530565b60405180910390fd5b50565b600560149054906101000a900460ff1681565b606060001515600560149054906101000a900460ff161515146108bf57600080fd5b60006003600084815260200190815260200160002090506000818054905067ffffffffffffffff81111561091c577f4e487b7100000000000000000000000000000000000000000000000000000000600052604160045260246000fd5b60405190808252806020026020018201604052801561095557816020015b610942611000565b81526020019060019003908161093a5790505b50905060005b8280549050811015610ad057600160008483815481106109a4577f4e487b7100000000000000000000000000000000000000000000000000000000600052603260045260246000fd5b906000526020600020015481526020019081526020016000206040518060a00160405290816000820154815260200160018201548152602001600282015481526020016003820160009054906101000a900473ffffffffffffffffffffffffffffffffffffffff1673ffffffffffffffffffffffffffffffffffffffff1673ffffffffffffffffffffffffffffffffffffffff1681526020016004820160009054906101000a900460801b6fffffffffffffffffffffffffffffffff19166fffffffffffffffffffffffffffffffff191681525050828281518110610ab2577f4e487b7100000000000000000000000000000000000000000000000000000000600052603260045260246000fd5b60200260200101819052508080610ac89061168b565b91505061095b565b508092505050919050565b610ae3611000565b600160008381526020019081526020016000206040518060a00160405290816000820154815260200160018201548152602001600282015481526020016003820160009054906101000a900473ffffffffffffffffffffffffffffffffffffffff1673ffffffffffffffffffffffffffffffffffffffff1673ffffffffffffffffffffffffffffffffffffffff1681526020016004820160009054906101000a900460801b6fffffffffffffffffffffffffffffffff19166fffffffffffffffffffffffffffffffff1916815250509050919050565b600560009054906101000a900473ffffffffffffffffffffffffffffffffffffffff1681565b80600560009054906101000a900473ffffffffffffffffffffffffffffffffffffffff1673ffffffffffffffffffffffffffffffffffffffff163373ffffffffffffffffffffffffffffffffffffffff1614610c70576040517f08c379a0000000000000000000000000000000000000000000000000000000008152600401610c67906114f0565b60405180910390fd5b8073ffffffffffffffffffffffffffffffffffffffff16600560009054906101000a900473ffffffffffffffffffffffffffffffffffffffff1673ffffffffffffffffffffffffffffffffffffffff161415610d01576040517f08c379a0000000000000000000000000000000000000000000000000000000008152600401610cf890611550565b60405180910390fd5b81600560006101000a81548173ffffffffffffffffffffffffffffffffffffffff021916908373ffffffffffffffffffffffffffffffffffffffff1602179055505050565b60005481565b600560009054906101000a900473ffffffffffffffffffffffffffffffffffffffff1673ffffffffffffffffffffffffffffffffffffffff163373ffffffffffffffffffffffffffffffffffffffff1614610ddc576040517f08c379a0000000000000000000000000000000000000000000000000000000008152600401610dd3906114f0565b60405180910390fd5b6000600560146101000a81548160ff021916908315150217905550565b600060026000838152602001908152602001600020549050919050565b600560009054906101000a900473ffffffffffffffffffffffffffffffffffffffff1673ffffffffffffffffffffffffffffffffffffffff163373ffffffffffffffffffffffffffffffffffffffff1614610ea6576040517f08c379a0000000000000000000000000000000000000000000000000000000008152600401610e9d906114f0565b60405180910390fd5b6001600560146101000a81548160ff0219169083151502179055506000600560009054906101000a900473ffffffffffffffffffffffffffffffffffffffff1673ffffffffffffffffffffffffffffffffffffffff1647604051610f0990611468565b60006040518083038185875af1925050503d8060008114610f46576040519150601f19603f3d011682016040523d82523d6000602084013e610f4b565b606091505b5050905080610f8f576040517f08c379a0000000000000000000000000000000000000000000000000000000008152600401610f8690611510565b60405180910390fd5b50565b60003373ffffffffffffffffffffffffffffffffffffffff166001600084815260200190815260200160002060030160009054906101000a900473ffffffffffffffffffffffffffffffffffffffff1673ffffffffffffffffffffffffffffffffffffffff16149050919050565b6040518060a00160405280600081526020016000815260200160008019168152602001600073ffffffffffffffffffffffffffffffffffffffff16815260200160006fffffffffffffffffffffffffffffffff191681525090565b60008135905061106a816117ef565b92915050565b60008135905061107f81611806565b92915050565b6000813590506110948161181d565b92915050565b6000813590506110a981611834565b92915050565b6000602082840312156110c157600080fd5b60006110cf8482850161105b565b91505092915050565b6000806000606084860312156110ed57600080fd5b60006110fb86828701611070565b935050602061110c86828701611085565b925050604061111d86828701611085565b9150509250925092565b60006020828403121561113957600080fd5b600061114784828501611085565b91505092915050565b60006020828403121561116257600080fd5b60006111708482850161109a565b91505092915050565b6000611185838361133d565b60a08301905092915050565b61119a8161160d565b82525050565b6111a9816115fb565b82525050565b6111c06111bb826115fb565b6116d4565b82525050565b60006111d1826115b6565b6111db81856115ce565b93506111e6836115a6565b8060005b838110156112175781516111fe8882611179565b9750611209836115c1565b9250506001810190506111ea565b5085935050505092915050565b61122d8161161f565b82525050565b61123c8161162b565b82525050565b61125361124e8261162b565b6116e6565b82525050565b61126281611657565b82525050565b61127181611657565b82525050565b61128861128382611657565b6116f0565b82525050565b600061129b6014836115ea565b91506112a682611748565b602082019050919050565b60006112be600f836115ea565b91506112c982611771565b602082019050919050565b60006112e16019836115ea565b91506112ec8261179a565b602082019050919050565b6000611304600c836115ea565b915061130f826117c3565b602082019050919050565b60006113276000836115df565b9150611332826117ec565b600082019050919050565b60a082016000820151611353600085018261140d565b506020820151611366602085018261140d565b5060408201516113796040850182611259565b50606082015161138c60608501826111a0565b50608082015161139f6080850182611233565b50505050565b60a0820160008201516113bb600085018261140d565b5060208201516113ce602085018261140d565b5060408201516113e16040850182611259565b5060608201516113f460608501826111a0565b5060808201516114076080850182611233565b50505050565b61141681611681565b82525050565b61142581611681565b82525050565b60006114378286611242565b6010820191506114478285611277565b60208201915061145782846111af565b601482019150819050949350505050565b60006114738261131a565b9150819050919050565b60006020820190506114926000830184611191565b92915050565b600060208201905081810360008301526114b281846111c6565b905092915050565b60006020820190506114cf6000830184611224565b92915050565b60006020820190506114ea6000830184611268565b92915050565b600060208201905081810360008301526115098161128e565b9050919050565b60006020820190508181036000830152611529816112b1565b9050919050565b60006020820190508181036000830152611549816112d4565b9050919050565b60006020820190508181036000830152611569816112f7565b9050919050565b600060a08201905061158560008301846113a5565b92915050565b60006020820190506115a0600083018461141c565b92915050565b6000819050602082019050919050565b600081519050919050565b6000602082019050919050565b600082825260208201905092915050565b600081905092915050565b600082825260208201905092915050565b600061160682611661565b9050919050565b600061161882611661565b9050919050565b60008115159050919050565b60007fffffffffffffffffffffffffffffffff0000000000000000000000000000000082169050919050565b6000819050919050565b600073ffffffffffffffffffffffffffffffffffffffff82169050919050565b6000819050919050565b600061169682611681565b91507fffffffffffffffffffffffffffffffffffffffffffffffffffffffffffffffff8214156116c9576116c861170c565b5b600182019050919050565b60006116df826116fa565b9050919050565b6000819050919050565b6000819050919050565b60006117058261173b565b9050919050565b7f4e487b7100000000000000000000000000000000000000000000000000000000600052601160045260246000fd5b60008160601b9050919050565b7f4f6e6c79206d616e6167657220616c6c6f776564000000000000000000000000600082015250565b7f5472616e73666572206661696c65640000000000000000000000000000000000600082015250565b7f6572726f7220647572696e6720746865206672616e7366657200000000000000600082015250565b7f53616d6520616464726573730000000000000000000000000000000000000000600082015250565b50565b6117f8816115fb565b811461180357600080fd5b50565b61180f8161162b565b811461181a57600080fd5b50565b61182681611657565b811461183157600080fd5b50565b61183d81611681565b811461184857600080fd5b5056fea26469706673582212203aa6c744f909782d477b7492ba18d355e85b97c0639cee09e4535da119a1920564736f6c63430008040033",
  "immutableReferences": {},
  "source": "// SPDX-License-Identifier: MIT\npragma solidity >=0.4.22 <0.9.0;\n\ncontract CourseMarketplace {\n\n  enum State {\n    Purchased,\n    Activated,\n    Deactivated\n  }\n\n  struct Course {\n    uint id; // 32\n    uint price; // 32\n    bytes32 proof; // 32\n    address owner; // 20\n    bytes16 courseId; // 16\n  }\n\n  // number of all courses + id of the course\n  uint public totalOwnedCourses;\n\n  // mapping of courseHash to Course data\n  mapping(bytes32 => Course) private ownedCourses;\n\n  // mapping of courseID to courseHash\n  mapping(uint => bytes32) private ownedCourseHash;\n\n  mapping(bytes32 => bytes32[]) private emailToCourses;\n\n  bytes32[] private allEmailHashes;\n\n  address payable public owner;\n\n  bool public isStopped;\n\n  /// The course has been purchased\n  error hasOwnership();\n\n  modifier isContractStopped{\n        require(isStopped == false);\n        _;\n  }\n\n  modifier onlyOwner {\n        require(msg.sender == owner, \"Only manager allowed\");\n        _;\n  }\n\n  modifier restricted(address newOwner) {\n        require(msg.sender == owner, \"Only manager allowed\");\n        require(owner != newOwner, \"Same address\");\n        _;\n  }\n\n  constructor(){\n    owner = payable(msg.sender);\n  }\n\n  function stopContract() external onlyOwner {\n    isStopped = true;\n  }\n\n  function resumeContract() external onlyOwner {\n    isStopped = false;\n  }\n\n  function purchaseCourse(\n    bytes16 courseId, // 0x00000000000000000000000000003130\n    bytes32 proof, // 0x0000000000000000000000000000313000000000000000000000000000003130\n    bytes32 emailHash\n  )\n    external\n    payable isContractStopped\n  {\n\n    bytes32 courseHash = keccak256(abi.encodePacked(courseId, emailHash, msg.sender));\n\n    if(hasCourseOwnership(courseHash)){\n        revert hasOwnership();\n    } \n\n\n    uint id = totalOwnedCourses++;\n\n    ownedCourseHash[id] = courseHash;\n    ownedCourses[courseHash] = Course({\n      id: id,\n      price: msg.value,\n      proof: proof,\n      owner: msg.sender,\n      courseId: courseId\n    });\n\n    // Map emailHash to purchased course\n    emailToCourses[emailHash].push(courseHash);\n\n    // Optional: track all email hashes (only if new)\n    if(emailToCourses[emailHash].length == 1) {\n      allEmailHashes.push(emailHash);\n    }\n  }\n\n  function shutdown() external onlyOwner {\n    isStopped = true;\n    (bool success,) = owner.call{value: address(this).balance}(\"\");\n    require(success, \"Transfer failed\");\n}\n\n  receive() external payable{\n  }\n\n  function withdraw(uint amount) external onlyOwner{\n    (bool success,) = owner.call{value: amount}(\"\");\n    require(success,\"error during the fransfer\");\n  }\n\n  function withdrawAllBalance() external onlyOwner{\n    (bool success,) = owner.call{value: address(this).balance}(\"\");\n    require(success,\"error during the fransfer\");\n  }\n\n  function getOwnedCourseHash(uint index) external view returns(bytes32){\n    return ownedCourseHash[index];\n  }\n\n  function getOwnedCourse(bytes32 hash) external view returns(Course memory){\n    return ownedCourses[hash];\n  }\n\n  function hasCourseOwnership(bytes32 hash) internal view returns(bool){\n    return(ownedCourses[hash].owner == msg.sender);\n    }  \n\n  function setContractOwner(address newOwner) external restricted(newOwner){\n    owner = payable(newOwner);\n  } \n\n  function getCoursesByEmail(bytes32 emailHash) external view isContractStopped returns (Course[] memory) {\n    bytes32[] storage hashes = emailToCourses[emailHash];\n    Course[] memory courses = new Course[](hashes.length);\n\n    for (uint i = 0; i < hashes.length; i++) {\n        courses[i] = ownedCourses[hashes[i]];\n    }\n\n    return courses;\n  }\n}",
  "sourcePath": "/Users/benoit/Documents/programming/Eth/marketplace-eth/contracts/CourseMarketplace.sol",
  "compiler": {
    "name": "solc",
    "version": "0.8.4+commit.c7e474f2.Emscripten.clang"
  },
  "schemaVersion": "3.4.16",
  "updatedAt": "2026-02-22T09:14:24.431Z",
  "networkType": "ethereum",
  "devdoc": {
    "kind": "dev",
    "methods": {},
    "version": 1
  },
  "userdoc": {
    "errors": {
      "hasOwnership()": [
        {
          "notice": "The course has been purchased"
        }
      ]
    },
    "kind": "user",
    "methods": {},
    "version": 1
  }
}