{
  "contractName": "CourseMarketplace",
  "abi": [
    {
      "inputs": [],
      "stateMutability": "nonpayable",
      "type": "constructor"
    },
    {
      "inputs": [],
      "name": "hasOwnership",
      "type": "error"
    },
    {
      "inputs": [],
      "name": "owner",
      "outputs": [
        {
          "internalType": "address payable",
          "name": "",
          "type": "address"
        }
      ],
      "stateMutability": "view",
      "type": "function",
      "constant": true
    },
    {
      "inputs": [],
      "name": "totalOwnedCourses",
      "outputs": [
        {
          "internalType": "uint256",
          "name": "",
          "type": "uint256"
        }
      ],
      "stateMutability": "view",
      "type": "function",
      "constant": true
    },
    {
      "inputs": [
        {
          "internalType": "bytes16",
          "name": "courseId",
          "type": "bytes16"
        },
        {
          "internalType": "bytes32",
          "name": "proof",
          "type": "bytes32"
        },
        {
          "internalType": "bytes32",
          "name": "emailHash",
          "type": "bytes32"
        }
      ],
      "name": "purchaseCourse",
      "outputs": [],
      "stateMutability": "payable",
      "type": "function",
      "payable": true
    },
    {
      "inputs": [
        {
          "internalType": "uint256",
          "name": "index",
          "type": "uint256"
        }
      ],
      "name": "getOwnedCourseHash",
      "outputs": [
        {
          "internalType": "bytes32",
          "name": "",
          "type": "bytes32"
        }
      ],
      "stateMutability": "view",
      "type": "function",
      "constant": true
    },
    {
      "inputs": [
        {
          "internalType": "bytes32",
          "name": "hash",
          "type": "bytes32"
        }
      ],
      "name": "getOwnedCourse",
      "outputs": [
        {
          "components": [
            {
              "internalType": "uint256",
              "name": "id",
              "type": "uint256"
            },
            {
              "internalType": "uint256",
              "name": "price",
              "type": "uint256"
            },
            {
              "internalType": "bytes32",
              "name": "proof",
              "type": "bytes32"
            },
            {
              "internalType": "address",
              "name": "owner",
              "type": "address"
            },
            {
              "internalType": "bytes16",
              "name": "courseId",
              "type": "bytes16"
            },
            {
              "internalType": "enum CourseMarketplace.State",
              "name": "state",
              "type": "uint8"
            }
          ],
          "internalType": "struct CourseMarketplace.Course",
          "name": "",
          "type": "tuple"
        }
      ],
      "stateMutability": "view",
      "type": "function",
      "constant": true
    },
    {
      "inputs": [
        {
          "internalType": "address",
          "name": "newOwner",
          "type": "address"
        }
      ],
      "name": "setContractOwner",
      "outputs": [],
      "stateMutability": "nonpayable",
      "type": "function"
    },
    {
      "inputs": [
        {
          "internalType": "bytes32",
          "name": "emailHash",
          "type": "bytes32"
        }
      ],
      "name": "getCoursesByEmail",
      "outputs": [
        {
          "components": [
            {
              "internalType": "uint256",
              "name": "id",
              "type": "uint256"
            },
            {
              "internalType": "uint256",
              "name": "price",
              "type": "uint256"
            },
            {
              "internalType": "bytes32",
              "name": "proof",
              "type": "bytes32"
            },
            {
              "internalType": "address",
              "name": "owner",
              "type": "address"
            },
            {
              "internalType": "bytes16",
              "name": "courseId",
              "type": "bytes16"
            },
            {
              "internalType": "enum CourseMarketplace.State",
              "name": "state",
              "type": "uint8"
            }
          ],
          "internalType": "struct CourseMarketplace.Course[]",
          "name": "",
          "type": "tuple[]"
        }
      ],
      "stateMutability": "view",
      "type": "function",
      "constant": true
    }
  ],
  "bytecode": "0x608060405234801561001057600080fd5b5033600560006101000a81548173ffffffffffffffffffffffffffffffffffffffff021916908373ffffffffffffffffffffffffffffffffffffffff16021790555061127f806100616000396000f3fe6080604052600436106100705760003560e01c80638da5cb5b1161004e5780638da5cb5b1461010b578063a34d42b814610136578063b4f7665b1461015f578063e82400bc1461018a57610070565b80633a102ec8146100755780635c8062ba146100915780637437ac5c146100ce575b600080fd5b61008f600480360381019061008a9190610bbf565b6101c7565b005b34801561009d57600080fd5b506100b860048036038101906100b39190610c0e565b610480565b6040516100c59190610eff565b60405180910390f35b3480156100da57600080fd5b506100f560048036038101906100f09190610c0e565b610725565b6040516101029190610f7c565b60405180910390f35b34801561011757600080fd5b5061012061088a565b60405161012d9190610ee4565b60405180910390f35b34801561014257600080fd5b5061015d60048036038101906101589190610b96565b6108b0565b005b34801561016b57600080fd5b50610174610a17565b6040516101819190610f97565b60405180910390f35b34801561019657600080fd5b506101b160048036038101906101ac9190610c37565b610a1d565b6040516101be9190610f21565b60405180910390f35b600083336040516020016101dc929190610eb8565b6040516020818303038152906040528051906020012090506101fd81610a3a565b15610234576040517f95076d8b00000000000000000000000000000000000000000000000000000000815260040160405180910390fd5b6000806000815480929190610248906110a5565b9190505590508160026000838152602001908152602001600020819055506040518060c001604052808281526020013481526020018581526020013373ffffffffffffffffffffffffffffffffffffffff168152602001866fffffffffffffffffffffffffffffffff19168152602001600060028111156102f2577f4e487b7100000000000000000000000000000000000000000000000000000000600052602160045260246000fd5b8152506001600084815260200190815260200160002060008201518160000155602082015181600101556040820151816002015560608201518160030160006101000a81548173ffffffffffffffffffffffffffffffffffffffff021916908373ffffffffffffffffffffffffffffffffffffffff16021790555060808201518160040160006101000a8154816fffffffffffffffffffffffffffffffff021916908360801c021790555060a08201518160040160106101000a81548160ff021916908360028111156103ee577f4e487b7100000000000000000000000000000000000000000000000000000000600052602160045260246000fd5b0217905550905050600360008481526020019081526020016000208290806001815401808255809150506001900390600052602060002001600090919091909150556001600360008581526020019081526020016000208054905014156104795760048390806001815401808255809150506001900390600052602060002001600090919091909150555b5050505050565b606060006003600084815260200190815260200160002090506000818054905067ffffffffffffffff8111156104df577f4e487b7100000000000000000000000000000000000000000000000000000000600052604160045260246000fd5b60405190808252806020026020018201604052801561051857816020015b610505610aa8565b8152602001906001900390816104fd5790505b50905060005b828054905081101561071a5760016000848381548110610567577f4e487b7100000000000000000000000000000000000000000000000000000000600052603260045260246000fd5b906000526020600020015481526020019081526020016000206040518060c00160405290816000820154815260200160018201548152602001600282015481526020016003820160009054906101000a900473ffffffffffffffffffffffffffffffffffffffff1673ffffffffffffffffffffffffffffffffffffffff1673ffffffffffffffffffffffffffffffffffffffff1681526020016004820160009054906101000a900460801b6fffffffffffffffffffffffffffffffff19166fffffffffffffffffffffffffffffffff191681526020016004820160109054906101000a900460ff166002811115610687577f4e487b7100000000000000000000000000000000000000000000000000000000600052602160045260246000fd5b60028111156106bf577f4e487b7100000000000000000000000000000000000000000000000000000000600052602160045260246000fd5b815250508282815181106106fc577f4e487b7100000000000000000000000000000000000000000000000000000000600052603260045260246000fd5b60200260200101819052508080610712906110a5565b91505061051e565b508092505050919050565b61072d610aa8565b600160008381526020019081526020016000206040518060c00160405290816000820154815260200160018201548152602001600282015481526020016003820160009054906101000a900473ffffffffffffffffffffffffffffffffffffffff1673ffffffffffffffffffffffffffffffffffffffff1673ffffffffffffffffffffffffffffffffffffffff1681526020016004820160009054906101000a900460801b6fffffffffffffffffffffffffffffffff19166fffffffffffffffffffffffffffffffff191681526020016004820160109054906101000a900460ff166002811115610847577f4e487b7100000000000000000000000000000000000000000000000000000000600052602160045260246000fd5b600281111561087f577f4e487b7100000000000000000000000000000000000000000000000000000000600052602160045260246000fd5b815250509050919050565b600560009054906101000a900473ffffffffffffffffffffffffffffffffffffffff1681565b80600560009054906101000a900473ffffffffffffffffffffffffffffffffffffffff1673ffffffffffffffffffffffffffffffffffffffff163373ffffffffffffffffffffffffffffffffffffffff1614610941576040517f08c379a000000000000000000000000000000000000000000000000000000000815260040161093890610f3c565b60405180910390fd5b8073ffffffffffffffffffffffffffffffffffffffff16600560009054906101000a900473ffffffffffffffffffffffffffffffffffffffff1673ffffffffffffffffffffffffffffffffffffffff1614156109d2576040517f08c379a00000000000000000000000000000000000000000000000000000000081526004016109c990610f5c565b60405180910390fd5b81600560006101000a81548173ffffffffffffffffffffffffffffffffffffffff021916908373ffffffffffffffffffffffffffffffffffffffff1602179055505050565b60005481565b600060026000838152602001908152602001600020549050919050565b60003373ffffffffffffffffffffffffffffffffffffffff166001600084815260200190815260200160002060030160009054906101000a900473ffffffffffffffffffffffffffffffffffffffff1673ffffffffffffffffffffffffffffffffffffffff16149050919050565b6040518060c00160405280600081526020016000815260200160008019168152602001600073ffffffffffffffffffffffffffffffffffffffff16815260200160006fffffffffffffffffffffffffffffffff1916815260200160006002811115610b3c577f4e487b7100000000000000000000000000000000000000000000000000000000600052602160045260246000fd5b81525090565b600081359050610b51816111ed565b92915050565b600081359050610b6681611204565b92915050565b600081359050610b7b8161121b565b92915050565b600081359050610b9081611232565b92915050565b600060208284031215610ba857600080fd5b6000610bb684828501610b42565b91505092915050565b600080600060608486031215610bd457600080fd5b6000610be286828701610b57565b9350506020610bf386828701610b6c565b9250506040610c0486828701610b6c565b9150509250925092565b600060208284031215610c2057600080fd5b6000610c2e84828501610b6c565b91505092915050565b600060208284031215610c4957600080fd5b6000610c5784828501610b81565b91505092915050565b6000610c6c8383610da4565b60c08301905092915050565b610c818161100e565b82525050565b610c9081610ffc565b82525050565b610ca7610ca282610ffc565b6110ee565b82525050565b6000610cb882610fc2565b610cc28185610fda565b9350610ccd83610fb2565b8060005b83811015610cfe578151610ce58882610c60565b9750610cf083610fcd565b925050600181019050610cd1565b5085935050505092915050565b610d1481611020565b82525050565b610d2b610d2682611020565b611100565b82525050565b610d3a8161104c565b82525050565b610d498161104c565b82525050565b610d5881611093565b82525050565b6000610d6b601483610feb565b9150610d7682611187565b602082019050919050565b6000610d8e600c83610feb565b9150610d99826111b0565b602082019050919050565b60c082016000820151610dba6000850182610e9a565b506020820151610dcd6020850182610e9a565b506040820151610de06040850182610d31565b506060820151610df36060850182610c87565b506080820151610e066080850182610d0b565b5060a0820151610e1960a0850182610d4f565b50505050565b60c082016000820151610e356000850182610e9a565b506020820151610e486020850182610e9a565b506040820151610e5b6040850182610d31565b506060820151610e6e6060850182610c87565b506080820151610e816080850182610d0b565b5060a0820151610e9460a0850182610d4f565b50505050565b610ea381611089565b82525050565b610eb281611089565b82525050565b6000610ec48285610d1a565b601082019150610ed48284610c96565b6014820191508190509392505050565b6000602082019050610ef96000830184610c78565b92915050565b60006020820190508181036000830152610f198184610cad565b905092915050565b6000602082019050610f366000830184610d40565b92915050565b60006020820190508181036000830152610f5581610d5e565b9050919050565b60006020820190508181036000830152610f7581610d81565b9050919050565b600060c082019050610f916000830184610e1f565b92915050565b6000602082019050610fac6000830184610ea9565b92915050565b6000819050602082019050919050565b600081519050919050565b6000602082019050919050565b600082825260208201905092915050565b600082825260208201905092915050565b600061100782611069565b9050919050565b600061101982611069565b9050919050565b60007fffffffffffffffffffffffffffffffff0000000000000000000000000000000082169050919050565b6000819050919050565b6000819050611064826111d9565b919050565b600073ffffffffffffffffffffffffffffffffffffffff82169050919050565b6000819050919050565b600061109e82611056565b9050919050565b60006110b082611089565b91507fffffffffffffffffffffffffffffffffffffffffffffffffffffffffffffffff8214156110e3576110e261111c565b5b600182019050919050565b60006110f98261110a565b9050919050565b6000819050919050565b60006111158261117a565b9050919050565b7f4e487b7100000000000000000000000000000000000000000000000000000000600052601160045260246000fd5b7f4e487b7100000000000000000000000000000000000000000000000000000000600052602160045260246000fd5b60008160601b9050919050565b7f4f6e6c79206d616e6167657220616c6c6f776564000000000000000000000000600082015250565b7f53616d6520616464726573730000000000000000000000000000000000000000600082015250565b600381106111ea576111e961114b565b5b50565b6111f681610ffc565b811461120157600080fd5b50565b61120d81611020565b811461121857600080fd5b50565b6112248161104c565b811461122f57600080fd5b50565b61123b81611089565b811461124657600080fd5b5056fea26469706673582212206565c1d0a649d452b5a2df786b704198acdf5e0b0616d4494159d534db890bd964736f6c63430008040033",
  "immutableReferences": {},
  "source": "// SPDX-License-Identifier: MIT\npragma solidity >=0.4.22 <0.9.0;\n\ncontract CourseMarketplace {\n\n  enum State {\n    Purchased,\n    Activated,\n    Deactivated\n  }\n\n  struct Course {\n    uint id; // 32\n    uint price; // 32\n    bytes32 proof; // 32\n    address owner; // 20\n    bytes16 courseId; // 16\n    State state; // 1\n  }\n\n  // number of all courses + id of the course\n  uint public totalOwnedCourses;\n\n  // mapping of courseHash to Course data\n  mapping(bytes32 => Course) private ownedCourses;\n\n  // mapping of courseID to courseHash\n  mapping(uint => bytes32) private ownedCourseHash;\n\n  mapping(bytes32 => bytes32[]) private emailToCourses;\n\n  bytes32[] private allEmailHashes;\n\n  address payable public owner;\n\n  /// The course has been purchased\n  error hasOwnership();\n\n  modifier restricted(address newOwner) {\n        require(msg.sender == owner, \"Only manager allowed\");\n        require(owner != newOwner, \"Same address\");\n        _;\n    }\n\n  constructor(){\n    owner = payable(msg.sender);\n  }\n\n  function purchaseCourse(\n    bytes16 courseId, // 0x00000000000000000000000000003130\n    bytes32 proof, // 0x0000000000000000000000000000313000000000000000000000000000003130\n    bytes32 emailHash\n  )\n    external\n    payable\n  {\n\n    bytes32 courseHash = keccak256(abi.encodePacked(courseId, msg.sender));\n\n    if(hasCourseOwnership(courseHash)){\n        revert hasOwnership();\n    } \n\n\n    uint id = totalOwnedCourses++;\n\n    ownedCourseHash[id] = courseHash;\n    ownedCourses[courseHash] = Course({\n      id: id,\n      price: msg.value,\n      proof: proof,\n      owner: msg.sender,\n      courseId: courseId,\n      state: State.Purchased\n    });\n\n    // Map emailHash to purchased course\n    emailToCourses[emailHash].push(courseHash);\n\n    // Optional: track all email hashes (only if new)\n    if(emailToCourses[emailHash].length == 1) {\n      allEmailHashes.push(emailHash);\n    }\n  }\n\n  function getOwnedCourseHash(uint index) external view returns(bytes32){\n    return ownedCourseHash[index];\n  }\n\n  function getOwnedCourse(bytes32 hash) external view returns(Course memory){\n    return ownedCourses[hash];\n  }\n\n  function hasCourseOwnership(bytes32 hash) internal view returns(bool){\n    return(ownedCourses[hash].owner == msg.sender);\n    }  \n\n  function setContractOwner(address newOwner) external restricted(newOwner){\n    owner = payable(newOwner);\n  } \n\n  function getCoursesByEmail(bytes32 emailHash) external view returns (Course[] memory) {\n    bytes32[] storage hashes = emailToCourses[emailHash];\n    Course[] memory courses = new Course[](hashes.length);\n\n    for (uint i = 0; i < hashes.length; i++) {\n        courses[i] = ownedCourses[hashes[i]];\n    }\n\n    return courses;\n  }\n}",
  "sourcePath": "/Users/benoit/Documents/programming/Eth/marketplace-eth/contracts/CourseMarketplace.sol",
  "compiler": {
    "name": "solc",
    "version": "0.8.4+commit.c7e474f2.Emscripten.clang"
  },
  "schemaVersion": "3.4.16",
  "updatedAt": "2026-02-15T12:54:57.733Z",
  "networkType": "ethereum",
  "devdoc": {
    "kind": "dev",
    "methods": {},
    "version": 1
  },
  "userdoc": {
    "errors": {
      "hasOwnership()": [
        {
          "notice": "The course has been purchased"
        }
      ]
    },
    "kind": "user",
    "methods": {},
    "version": 1
  }
}